{
  "contractName": "DistributedVoting",
  "abi": [
    {
      "inputs": [],
      "stateMutability": "nonpayable",
      "type": "constructor"
    },
    {
      "inputs": [],
      "name": "addAdmin",
      "outputs": [],
      "stateMutability": "nonpayable",
      "type": "function"
    },
    {
      "inputs": [
        {
          "internalType": "address",
          "name": "_address",
          "type": "address"
        }
      ],
      "name": "checkAdmin",
      "outputs": [
        {
          "internalType": "bool",
          "name": "",
          "type": "bool"
        }
      ],
      "stateMutability": "view",
      "type": "function",
      "constant": true
    },
    {
      "inputs": [
        {
          "internalType": "string",
          "name": "electionName",
          "type": "string"
        },
        {
          "internalType": "string",
          "name": "electionDetails",
          "type": "string"
        }
      ],
      "name": "addElection",
      "outputs": [],
      "stateMutability": "nonpayable",
      "type": "function"
    },
    {
      "inputs": [
        {
          "internalType": "string",
          "name": "positionName",
          "type": "string"
        },
        {
          "internalType": "string",
          "name": "positionDetails",
          "type": "string"
        },
        {
          "internalType": "string",
          "name": "electionName",
          "type": "string"
        }
      ],
      "name": "addPosition",
      "outputs": [],
      "stateMutability": "nonpayable",
      "type": "function"
    },
    {
      "inputs": [
        {
          "internalType": "string",
          "name": "name",
          "type": "string"
        },
        {
          "internalType": "string",
          "name": "details",
          "type": "string"
        },
        {
          "internalType": "string",
          "name": "positionName",
          "type": "string"
        }
      ],
      "name": "addCandidate",
      "outputs": [],
      "stateMutability": "nonpayable",
      "type": "function"
    },
    {
      "inputs": [
        {
          "internalType": "string",
          "name": "name",
          "type": "string"
        }
      ],
      "name": "getElection",
      "outputs": [
        {
          "internalType": "string",
          "name": "electionName",
          "type": "string"
        },
        {
          "internalType": "string",
          "name": "electionDetails",
          "type": "string"
        },
        {
          "internalType": "enum DistributedVoting.State",
          "name": "electionState",
          "type": "uint8"
        }
      ],
      "stateMutability": "view",
      "type": "function",
      "constant": true
    },
    {
      "inputs": [
        {
          "internalType": "string",
          "name": "name",
          "type": "string"
        }
      ],
      "name": "getPosition",
      "outputs": [
        {
          "internalType": "string",
          "name": "positionName",
          "type": "string"
        },
        {
          "internalType": "string",
          "name": "positionDetails",
          "type": "string"
        },
        {
          "internalType": "string",
          "name": "electionName",
          "type": "string"
        }
      ],
      "stateMutability": "view",
      "type": "function",
      "constant": true
    },
    {
      "inputs": [
        {
          "internalType": "string",
          "name": "candidateName",
          "type": "string"
        }
      ],
      "name": "getCandidates",
      "outputs": [
        {
          "internalType": "string",
          "name": "name",
          "type": "string"
        },
        {
          "internalType": "string",
          "name": "details",
          "type": "string"
        },
        {
          "internalType": "bool",
          "name": "exists",
          "type": "bool"
        },
        {
          "internalType": "int256",
          "name": "voteCount",
          "type": "int256"
        },
        {
          "internalType": "string",
          "name": "position",
          "type": "string"
        }
      ],
      "stateMutability": "view",
      "type": "function",
      "constant": true
    },
    {
      "inputs": [
        {
          "internalType": "int256",
          "name": "voterId",
          "type": "int256"
        },
        {
          "internalType": "string",
          "name": "voterName",
          "type": "string"
        },
        {
          "internalType": "string",
          "name": "electionName",
          "type": "string"
        }
      ],
      "name": "addVoter",
      "outputs": [],
      "stateMutability": "nonpayable",
      "type": "function"
    },
    {
      "inputs": [
        {
          "internalType": "address",
          "name": "_address",
          "type": "address"
        }
      ],
      "name": "verifyVoter",
      "outputs": [],
      "stateMutability": "nonpayable",
      "type": "function"
    },
    {
      "inputs": [
        {
          "internalType": "string",
          "name": "candidateName",
          "type": "string"
        }
      ],
      "name": "vote",
      "outputs": [
        {
          "internalType": "bool",
          "name": "",
          "type": "bool"
        }
      ],
      "stateMutability": "nonpayable",
      "type": "function"
    },
    {
      "inputs": [],
      "name": "getVoter",
      "outputs": [
        {
          "internalType": "int256",
          "name": "voterId",
          "type": "int256"
        },
        {
          "internalType": "bool",
          "name": "vregistered",
          "type": "bool"
        },
        {
          "internalType": "bool",
          "name": "voted",
          "type": "bool"
        }
      ],
      "stateMutability": "view",
      "type": "function",
      "constant": true
    },
    {
      "inputs": [
        {
          "internalType": "string",
          "name": "electionName",
          "type": "string"
        }
      ],
      "name": "startElection",
      "outputs": [],
      "stateMutability": "nonpayable",
      "type": "function"
    },
    {
      "inputs": [
        {
          "internalType": "string",
          "name": "electionName",
          "type": "string"
        }
      ],
      "name": "endElection",
      "outputs": [],
      "stateMutability": "nonpayable",
      "type": "function"
    }
  ],
  "bytecode": "0x608060405234801561001057600080fd5b506001600260003373ffffffffffffffffffffffffffffffffffffffff1673ffffffffffffffffffffffffffffffffffffffff16815260200190815260200160002060006101000a81548160ff0219169083151502179055506131d1806100786000396000f3fe608060405234801561001057600080fd5b50600436106100ea5760003560e01c80639026dee81161008c578063f544bed811610066578063f544bed814610251578063f99546031461026d578063fc36e15b14610289578063fe43bc07146102b9576100ea565b80639026dee8146101e957806395b7990714610219578063ad71f8dc14610235576100ea565b806345534763116100c8578063455347631461015d5780634771b573146101915780636d5aaf80146101c3578063787c1aba146101cd576100ea565b806309bd0950146100ef57806310fb6fc11461010b5780632b37f53c1461013d575b600080fd5b61010960048036038101906101049190612384565b6102d5565b005b610125600480360381019061012091906124f7565b6106c9565b604051610134939291906125bf565b60405180910390f35b6101456108dc565b6040516101549392919061263f565b60405180910390f35b610177600480360381019061017291906124f7565b6109cf565b604051610188959493929190612676565b60405180910390f35b6101ab60048036038101906101a691906124f7565b610c3c565b6040516101ba93929190612755565b60405180910390f35b6101cb610dd0565b005b6101e760048036038101906101e291906127c6565b610ebd565b005b61020360048036038101906101fe9190612384565b611164565b6040516102109190612851565b60405180910390f35b610233600480360381019061022e919061286c565b6111ba565b005b61024f600480360381019061024a91906128e4565b611332565b005b61026b600480360381019061026691906124f7565b61189d565b005b610287600480360381019061028291906128e4565b611a8b565b005b6102a3600480360381019061029e91906124f7565b611d9e565b6040516102b09190612851565b60405180910390f35b6102d360048036038101906102ce91906124f7565b612124565b005b60011515600260003373ffffffffffffffffffffffffffffffffffffffff1673ffffffffffffffffffffffffffffffffffffffff16815260200190815260200160002060009054906101000a900460ff16151514610368576040517f08c379a000000000000000000000000000000000000000000000000000000000815260040161035f906129d7565b60405180910390fd5b600460008273ffffffffffffffffffffffffffffffffffffffff1673ffffffffffffffffffffffffffffffffffffffff16815260200190815260200160002060040160000180546103b890612a26565b80601f01602080910402602001604051908101604052809291908181526020018280546103e490612a26565b80156104315780601f1061040657610100808354040283529160200191610431565b820191906000526020600020905b81548152906001019060200180831161041457829003601f168201915b50505050506001151560008260405161044a9190612a93565b908152602001604051809103902060020160019054906101000a900460ff161515146104ab576040517f08c379a00000000000000000000000000000000000000000000000000000000081526004016104a290612af6565b60405180910390fd5b600460008373ffffffffffffffffffffffffffffffffffffffff1673ffffffffffffffffffffffffffffffffffffffff16815260200190815260200160002060040160000180546104fb90612a26565b80601f016020809104026020016040519081016040528092919081815260200182805461052790612a26565b80156105745780601f1061054957610100808354040283529160200191610574565b820191906000526020600020905b81548152906001019060200180831161055757829003601f168201915b50505050506000600281111561058d5761058c6126de565b5b60008260405161059d9190612a93565b908152602001604051809103902060020160009054906101000a900460ff1660028111156105ce576105cd6126de565b5b1461060e576040517f08c379a000000000000000000000000000000000000000000000000000000000815260040161060590612b62565b60405180910390fd5b6001600460008573ffffffffffffffffffffffffffffffffffffffff1673ffffffffffffffffffffffffffffffffffffffff16815260200190815260200160002060030160006101000a81548160ff0219169083151502179055506000600460008573ffffffffffffffffffffffffffffffffffffffff1673ffffffffffffffffffffffffffffffffffffffff16815260200190815260200160002060030160016101000a81548160ff021916908315150217905550505050565b60608060606001846040516106de9190612a93565b908152602001604051809103902060000180546106fa90612a26565b80601f016020809104026020016040519081016040528092919081815260200182805461072690612a26565b80156107735780601f1061074857610100808354040283529160200191610773565b820191906000526020600020905b81548152906001019060200180831161075657829003601f168201915b5050505050925060018460405161078a9190612a93565b908152602001604051809103902060010180546107a690612a26565b80601f01602080910402602001604051908101604052809291908181526020018280546107d290612a26565b801561081f5780601f106107f45761010080835404028352916020019161081f565b820191906000526020600020905b81548152906001019060200180831161080257829003601f168201915b505050505091506001846040516108369190612a93565b9081526020016040518091039020600201600001805461085590612a26565b80601f016020809104026020016040519081016040528092919081815260200182805461088190612a26565b80156108ce5780601f106108a3576101008083540402835291602001916108ce565b820191906000526020600020905b8154815290600101906020018083116108b157829003601f168201915b505050505090509193909250565b6000806000600460003373ffffffffffffffffffffffffffffffffffffffff1673ffffffffffffffffffffffffffffffffffffffff168152602001908152602001600020600101549250600460003373ffffffffffffffffffffffffffffffffffffffff1673ffffffffffffffffffffffffffffffffffffffff16815260200190815260200160002060030160009054906101000a900460ff169150600460003373ffffffffffffffffffffffffffffffffffffffff1673ffffffffffffffffffffffffffffffffffffffff16815260200190815260200160002060030160019054906101000a900460ff169050909192565b60608060008060606003866040516109e79190612a93565b90815260200160405180910390206000018054610a0390612a26565b80601f0160208091040260200160405190810160405280929190818152602001828054610a2f90612a26565b8015610a7c5780601f10610a5157610100808354040283529160200191610a7c565b820191906000526020600020905b815481529060010190602001808311610a5f57829003601f168201915b50505050509450600386604051610a939190612a93565b90815260200160405180910390206001018054610aaf90612a26565b80601f0160208091040260200160405190810160405280929190818152602001828054610adb90612a26565b8015610b285780601f10610afd57610100808354040283529160200191610b28565b820191906000526020600020905b815481529060010190602001808311610b0b57829003601f168201915b50505050509350600386604051610b3f9190612a93565b908152602001604051809103902060020160009054906101000a900460ff169250600386604051610b709190612a93565b9081526020016040518091039020600301549150600386604051610b949190612a93565b90815260200160405180910390206004016000018054610bb390612a26565b80601f0160208091040260200160405190810160405280929190818152602001828054610bdf90612a26565b8015610c2c5780601f10610c0157610100808354040283529160200191610c2c565b820191906000526020600020905b815481529060010190602001808311610c0f57829003601f168201915b5050505050905091939590929450565b60608060008084604051610c509190612a93565b90815260200160405180910390206000018054610c6c90612a26565b80601f0160208091040260200160405190810160405280929190818152602001828054610c9890612a26565b8015610ce55780601f10610cba57610100808354040283529160200191610ce5565b820191906000526020600020905b815481529060010190602001808311610cc857829003601f168201915b50505050509250600084604051610cfc9190612a93565b90815260200160405180910390206001018054610d1890612a26565b80601f0160208091040260200160405190810160405280929190818152602001828054610d4490612a26565b8015610d915780601f10610d6657610100808354040283529160200191610d91565b820191906000526020600020905b815481529060010190602001808311610d7457829003601f168201915b50505050509150600084604051610da89190612a93565b908152602001604051809103902060020160009054906101000a900460ff1690509193909250565b60011515600260003373ffffffffffffffffffffffffffffffffffffffff1673ffffffffffffffffffffffffffffffffffffffff16815260200190815260200160002060009054906101000a900460ff16151514610e63576040517f08c379a0000000000000000000000000000000000000000000000000000000008152600401610e5a906129d7565b60405180910390fd5b6001600260003373ffffffffffffffffffffffffffffffffffffffff1673ffffffffffffffffffffffffffffffffffffffff16815260200190815260200160002060006101000a81548160ff021916908315150217905550565b8060011515600082604051610ed29190612a93565b908152602001604051809103902060020160019054906101000a900460ff16151514610f33576040517f08c379a0000000000000000000000000000000000000000000000000000000008152600401610f2a90612af6565b60405180910390fd5b8160006002811115610f4857610f476126de565b5b600082604051610f589190612a93565b908152602001604051809103902060020160009054906101000a900460ff166002811115610f8957610f886126de565b5b14610fc9576040517f08c379a0000000000000000000000000000000000000000000000000000000008152600401610fc090612b62565b60405180910390fd5b600033905085600460008373ffffffffffffffffffffffffffffffffffffffff1673ffffffffffffffffffffffffffffffffffffffff1681526020019081526020016000206001018190555084600460008373ffffffffffffffffffffffffffffffffffffffff1673ffffffffffffffffffffffffffffffffffffffff16815260200190815260200160002060020190816110649190612d38565b506000846040516110759190612a93565b9081526020016040518091039020600460008373ffffffffffffffffffffffffffffffffffffffff1673ffffffffffffffffffffffffffffffffffffffff168152602001908152602001600020600401600082018160000190816110d99190612e20565b50600182018160010190816110ee9190612e20565b506002820160009054906101000a900460ff168160020160006101000a81548160ff02191690836002811115611127576111266126de565b5b02179055506002820160019054906101000a900460ff168160020160016101000a81548160ff021916908315150217905550905050505050505050565b6000600260008373ffffffffffffffffffffffffffffffffffffffff1673ffffffffffffffffffffffffffffffffffffffff16815260200190815260200160002060009054906101000a900460ff169050919050565b60011515600260003373ffffffffffffffffffffffffffffffffffffffff1673ffffffffffffffffffffffffffffffffffffffff16815260200190815260200160002060009054906101000a900460ff1615151461124d576040517f08c379a0000000000000000000000000000000000000000000000000000000008152600401611244906129d7565b60405180910390fd5b8160008360405161125e9190612a93565b9081526020016040518091039020600001908161127b9190612d38565b508060008360405161128d9190612a93565b908152602001604051809103902060010190816112aa9190612d38565b50600080836040516112bc9190612a93565b908152602001604051809103902060020160006101000a81548160ff021916908360028111156112ef576112ee6126de565b5b021790555060016000836040516113069190612a93565b908152602001604051809103902060020160016101000a81548160ff0219169083151502179055505050565b6001816040516113429190612a93565b9081526020016040518091039020600201600001805461136190612a26565b80601f016020809104026020016040519081016040528092919081815260200182805461138d90612a26565b80156113da5780601f106113af576101008083540402835291602001916113da565b820191906000526020600020905b8154815290600101906020018083116113bd57829003601f168201915b5050505050600115156000826040516113f39190612a93565b908152602001604051809103902060020160019054906101000a900460ff16151514611454576040517f08c379a000000000000000000000000000000000000000000000000000000000815260040161144b90612af6565b60405180910390fd5b6001826040516114649190612a93565b9081526020016040518091039020600201600001805461148390612a26565b80601f01602080910402602001604051908101604052809291908181526020018280546114af90612a26565b80156114fc5780601f106114d1576101008083540402835291602001916114fc565b820191906000526020600020905b8154815290600101906020018083116114df57829003601f168201915b505050505060006002811115611515576115146126de565b5b6000826040516115259190612a93565b908152602001604051809103902060020160009054906101000a900460ff166002811115611556576115556126de565b5b14611596576040517f08c379a000000000000000000000000000000000000000000000000000000000815260040161158d90612b62565b60405180910390fd5b82600115156001826040516115ab9190612a93565b908152602001604051809103902060050160009054906101000a900460ff1615151461160c576040517f08c379a000000000000000000000000000000000000000000000000000000000815260040161160390612f54565b60405180910390fd5b60011515600260003373ffffffffffffffffffffffffffffffffffffffff1673ffffffffffffffffffffffffffffffffffffffff16815260200190815260200160002060009054906101000a900460ff1615151461169f576040517f08c379a0000000000000000000000000000000000000000000000000000000008152600401611696906129d7565b60405180910390fd5b856003876040516116b09190612a93565b908152602001604051809103902060000190816116cd9190612d38565b50846003876040516116df9190612a93565b908152602001604051809103902060010190816116fc9190612d38565b5060018460405161170d9190612a93565b908152602001604051809103902060038760405161172b9190612a93565b9081526020016040518091039020600401600082018160000190816117509190612e20565b50600182018160010190816117659190612e20565b506002820181600201600082018160000190816117829190612e20565b50600182018160010190816117979190612e20565b506002820160009054906101000a900460ff168160020160006101000a81548160ff021916908360028111156117d0576117cf6126de565b5b02179055506002820160019054906101000a900460ff168160020160016101000a81548160ff02191690831515021790555050506005820160009054906101000a900460ff168160050160006101000a81548160ff02191690831515021790555090505060016003876040516118469190612a93565b908152602001604051809103902060020160006101000a81548160ff02191690831515021790555060006003876040516118809190612a93565b908152602001604051809103902060030181905550505050505050565b60011515600260003373ffffffffffffffffffffffffffffffffffffffff1673ffffffffffffffffffffffffffffffffffffffff16815260200190815260200160002060009054906101000a900460ff16151514611930576040517f08c379a0000000000000000000000000000000000000000000000000000000008152600401611927906129d7565b60405180910390fd5b80600115156000826040516119459190612a93565b908152602001604051809103902060020160019054906101000a900460ff161515146119a6576040517f08c379a000000000000000000000000000000000000000000000000000000000815260040161199d90612af6565b60405180910390fd5b81600060028111156119bb576119ba6126de565b5b6000826040516119cb9190612a93565b908152602001604051809103902060020160009054906101000a900460ff1660028111156119fc576119fb6126de565b5b14611a3c576040517f08c379a0000000000000000000000000000000000000000000000000000000008152600401611a3390612b62565b60405180910390fd5b6001600084604051611a4e9190612a93565b908152602001604051809103902060020160006101000a81548160ff02191690836002811115611a8157611a806126de565b5b0217905550505050565b60011515600260003373ffffffffffffffffffffffffffffffffffffffff1673ffffffffffffffffffffffffffffffffffffffff16815260200190815260200160002060009054906101000a900460ff16151514611b1e576040517f08c379a0000000000000000000000000000000000000000000000000000000008152600401611b15906129d7565b60405180910390fd5b8060006002811115611b3357611b326126de565b5b600082604051611b439190612a93565b908152602001604051809103902060020160009054906101000a900460ff166002811115611b7457611b736126de565b5b14611bb4576040517f08c379a0000000000000000000000000000000000000000000000000000000008152600401611bab90612b62565b60405180910390fd5b8160011515600082604051611bc99190612a93565b908152602001604051809103902060020160019054906101000a900460ff16151514611c2a576040517f08c379a0000000000000000000000000000000000000000000000000000000008152600401611c2190612af6565b60405180910390fd5b84600186604051611c3b9190612a93565b90815260200160405180910390206000019081611c589190612d38565b5083600186604051611c6a9190612a93565b90815260200160405180910390206001019081611c879190612d38565b50600083604051611c989190612a93565b9081526020016040518091039020600186604051611cb69190612a93565b908152602001604051809103902060020160008201816000019081611cdb9190612e20565b5060018201816001019081611cf09190612e20565b506002820160009054906101000a900460ff168160020160006101000a81548160ff02191690836002811115611d2957611d286126de565b5b02179055506002820160019054906101000a900460ff168160020160016101000a81548160ff02191690831515021790555090505060018086604051611d6f9190612a93565b908152602001604051809103902060050160006101000a81548160ff0219169083151502179055505050505050565b6000600382604051611db09190612a93565b90815260200160405180910390206004016002016000018054611dd290612a26565b80601f0160208091040260200160405190810160405280929190818152602001828054611dfe90612a26565b8015611e4b5780601f10611e2057610100808354040283529160200191611e4b565b820191906000526020600020905b815481529060010190602001808311611e2e57829003601f168201915b505050505060016002811115611e6457611e636126de565b5b600082604051611e749190612a93565b908152602001604051809103902060020160009054906101000a900460ff166002811115611ea557611ea46126de565b5b14611ee5576040517f08c379a0000000000000000000000000000000000000000000000000000000008152600401611edc90612fc0565b60405180910390fd5b60011515600460003373ffffffffffffffffffffffffffffffffffffffff1673ffffffffffffffffffffffffffffffffffffffff16815260200190815260200160002060030160009054906101000a900460ff16151514611f7b576040517f08c379a0000000000000000000000000000000000000000000000000000000008152600401611f729061302c565b60405180910390fd5b60001515600460003373ffffffffffffffffffffffffffffffffffffffff1673ffffffffffffffffffffffffffffffffffffffff16815260200190815260200160002060030160019054906101000a900460ff16151514612011576040517f08c379a000000000000000000000000000000000000000000000000000000000815260040161200890613098565b60405180910390fd5b82600115156003826040516120269190612a93565b908152602001604051809103902060020160009054906101000a900460ff16151514612087576040517f08c379a000000000000000000000000000000000000000000000000000000000815260040161207e90613104565b60405180910390fd5b6001600460003373ffffffffffffffffffffffffffffffffffffffff1673ffffffffffffffffffffffffffffffffffffffff16815260200190815260200160002060030160016101000a81548160ff0219169083151502179055506003846040516120f29190612a93565b9081526020016040518091039020600301600081548092919061211490613153565b9190505550600192505050919050565b60011515600260003373ffffffffffffffffffffffffffffffffffffffff1673ffffffffffffffffffffffffffffffffffffffff16815260200190815260200160002060009054906101000a900460ff161515146121b7576040517f08c379a00000000000000000000000000000000000000000000000000000000081526004016121ae906129d7565b60405180910390fd5b80600115156000826040516121cc9190612a93565b908152602001604051809103902060020160019054906101000a900460ff1615151461222d576040517f08c379a000000000000000000000000000000000000000000000000000000000815260040161222490612af6565b60405180910390fd5b8160016002811115612242576122416126de565b5b6000826040516122529190612a93565b908152602001604051809103902060020160009054906101000a900460ff166002811115612283576122826126de565b5b146122c3576040517f08c379a00000000000000000000000000000000000000000000000000000000081526004016122ba90612fc0565b60405180910390fd5b60026000846040516122d59190612a93565b908152602001604051809103902060020160006101000a81548160ff02191690836002811115612308576123076126de565b5b0217905550505050565b6000604051905090565b600080fd5b600080fd5b600073ffffffffffffffffffffffffffffffffffffffff82169050919050565b600061235182612326565b9050919050565b61236181612346565b811461236c57600080fd5b50565b60008135905061237e81612358565b92915050565b60006020828403121561239a5761239961231c565b5b60006123a88482850161236f565b91505092915050565b600080fd5b600080fd5b6000601f19601f8301169050919050565b7f4e487b7100000000000000000000000000000000000000000000000000000000600052604160045260246000fd5b612404826123bb565b810181811067ffffffffffffffff82111715612423576124226123cc565b5b80604052505050565b6000612436612312565b905061244282826123fb565b919050565b600067ffffffffffffffff821115612462576124616123cc565b5b61246b826123bb565b9050602081019050919050565b82818337600083830152505050565b600061249a61249584612447565b61242c565b9050828152602081018484840111156124b6576124b56123b6565b5b6124c1848285612478565b509392505050565b600082601f8301126124de576124dd6123b1565b5b81356124ee848260208601612487565b91505092915050565b60006020828403121561250d5761250c61231c565b5b600082013567ffffffffffffffff81111561252b5761252a612321565b5b612537848285016124c9565b91505092915050565b600081519050919050565b600082825260208201905092915050565b60005b8381101561257a57808201518184015260208101905061255f565b60008484015250505050565b600061259182612540565b61259b818561254b565b93506125ab81856020860161255c565b6125b4816123bb565b840191505092915050565b600060608201905081810360008301526125d98186612586565b905081810360208301526125ed8185612586565b905081810360408301526126018184612586565b9050949350505050565b6000819050919050565b61261e8161260b565b82525050565b60008115159050919050565b61263981612624565b82525050565b60006060820190506126546000830186612615565b6126616020830185612630565b61266e6040830184612630565b949350505050565b600060a08201905081810360008301526126908188612586565b905081810360208301526126a48187612586565b90506126b36040830186612630565b6126c06060830185612615565b81810360808301526126d28184612586565b90509695505050505050565b7f4e487b7100000000000000000000000000000000000000000000000000000000600052602160045260246000fd5b6003811061271e5761271d6126de565b5b50565b600081905061272f8261270d565b919050565b600061273f82612721565b9050919050565b61274f81612734565b82525050565b6000606082019050818103600083015261276f8186612586565b905081810360208301526127838185612586565b90506127926040830184612746565b949350505050565b6127a38161260b565b81146127ae57600080fd5b50565b6000813590506127c08161279a565b92915050565b6000806000606084860312156127df576127de61231c565b5b60006127ed868287016127b1565b935050602084013567ffffffffffffffff81111561280e5761280d612321565b5b61281a868287016124c9565b925050604084013567ffffffffffffffff81111561283b5761283a612321565b5b612847868287016124c9565b9150509250925092565b60006020820190506128666000830184612630565b92915050565b600080604083850312156128835761288261231c565b5b600083013567ffffffffffffffff8111156128a1576128a0612321565b5b6128ad858286016124c9565b925050602083013567ffffffffffffffff8111156128ce576128cd612321565b5b6128da858286016124c9565b9150509250929050565b6000806000606084860312156128fd576128fc61231c565b5b600084013567ffffffffffffffff81111561291b5761291a612321565b5b612927868287016124c9565b935050602084013567ffffffffffffffff81111561294857612947612321565b5b612954868287016124c9565b925050604084013567ffffffffffffffff81111561297557612974612321565b5b612981868287016124c9565b9150509250925092565b7f6f6e6c792041646d696e00000000000000000000000000000000000000000000600082015250565b60006129c1600a8361254b565b91506129cc8261298b565b602082019050919050565b600060208201905081810360008301526129f0816129b4565b9050919050565b7f4e487b7100000000000000000000000000000000000000000000000000000000600052602260045260246000fd5b60006002820490506001821680612a3e57607f821691505b602082108103612a5157612a506129f7565b5b50919050565b600081905092915050565b6000612a6d82612540565b612a778185612a57565b9350612a8781856020860161255c565b80840191505092915050565b6000612a9f8284612a62565b915081905092915050565b7f456c656374696f6e20646f6573206e6f74206578697374730000000000000000600082015250565b6000612ae060188361254b565b9150612aeb82612aaa565b602082019050919050565b60006020820190508181036000830152612b0f81612ad3565b9050919050565b7f53746172746564206f7220456e64656400000000000000000000000000000000600082015250565b6000612b4c60108361254b565b9150612b5782612b16565b602082019050919050565b60006020820190508181036000830152612b7b81612b3f565b9050919050565b60008190508160005260206000209050919050565b60006020601f8301049050919050565b600082821b905092915050565b600060088302612be47fffffffffffffffffffffffffffffffffffffffffffffffffffffffffffffffff82612ba7565b612bee8683612ba7565b95508019841693508086168417925050509392505050565b6000819050919050565b6000819050919050565b6000612c35612c30612c2b84612c06565b612c10565b612c06565b9050919050565b6000819050919050565b612c4f83612c1a565b612c63612c5b82612c3c565b848454612bb4565b825550505050565b600090565b612c78612c6b565b612c83818484612c46565b505050565b5b81811015612ca757612c9c600082612c70565b600181019050612c89565b5050565b601f821115612cec57612cbd81612b82565b612cc684612b97565b81016020851015612cd5578190505b612ce9612ce185612b97565b830182612c88565b50505b505050565b600082821c905092915050565b6000612d0f60001984600802612cf1565b1980831691505092915050565b6000612d288383612cfe565b9150826002028217905092915050565b612d4182612540565b67ffffffffffffffff811115612d5a57612d596123cc565b5b612d648254612a26565b612d6f828285612cab565b600060209050601f831160018114612da25760008415612d90578287015190505b612d9a8582612d1c565b865550612e02565b601f198416612db086612b82565b60005b82811015612dd857848901518255600182019150602085019450602081019050612db3565b86831015612df55784890151612df1601f891682612cfe565b8355505b6001600288020188555050505b505050505050565b600081549050612e1981612a26565b9050919050565b818103612e2e575050612f06565b612e3782612e0a565b67ffffffffffffffff811115612e5057612e4f6123cc565b5b612e5a8254612a26565b612e65828285612cab565b6000601f831160018114612e945760008415612e82578287015490505b612e8c8582612d1c565b865550612eff565b601f198416612ea287612b82565b9650612ead86612b82565b60005b82811015612ed557848901548255600182019150600185019450602081019050612eb0565b86831015612ef25784890154612eee601f891682612cfe565b8355505b6001600288020188555050505b5050505050505b565b7f506f736974696f6e20646f6573206e6f74206578697374730000000000000000600082015250565b6000612f3e60188361254b565b9150612f4982612f08565b602082019050919050565b60006020820190508181036000830152612f6d81612f31565b9050919050565b7f4e6f742052756e6e696e67000000000000000000000000000000000000000000600082015250565b6000612faa600b8361254b565b9150612fb582612f74565b602082019050919050565b60006020820190508181036000830152612fd981612f9d565b9050919050565b7f4e6f742052656769737465726564000000000000000000000000000000000000600082015250565b6000613016600e8361254b565b915061302182612fe0565b602082019050919050565b6000602082019050818103600083015261304581613009565b9050919050565b7f416c726561647920566f74656400000000000000000000000000000000000000600082015250565b6000613082600d8361254b565b915061308d8261304c565b602082019050919050565b600060208201905081810360008301526130b181613075565b9050919050565b7f43616e64696461746520646f6573206e6f742065786973747300000000000000600082015250565b60006130ee60198361254b565b91506130f9826130b8565b602082019050919050565b6000602082019050818103600083015261311d816130e1565b9050919050565b7f4e487b7100000000000000000000000000000000000000000000000000000000600052601160045260246000fd5b600061315e8261260b565b91507f7fffffffffffffffffffffffffffffffffffffffffffffffffffffffffffffff82036131905761318f613124565b5b60018201905091905056fea2646970667358221220526c00e803b666b98d60d181f7e9471ffa4bd97238a4198ccc866d2842d74e7264736f6c63430008110033",
  "immutableReferences": {},
  "source": "// SPDX-License-Identifier: GPL-3.0\r\n\r\npragma solidity ^0.8.0;\r\n\r\ncontract DistributedVoting {\r\n    constructor() {\r\n        admins[msg.sender] = true;\r\n    }\r\n\r\n    //Variable\r\n    struct Voter {\r\n        address voterAddress;\r\n        int256 voterId;\r\n        string voterName;\r\n        bool registered;\r\n        bool voted;\r\n        Election election;\r\n    }\r\n    struct Candidate {\r\n        string candidateName;\r\n        string candidateDetails;\r\n        bool exists;\r\n        int voteCount;\r\n        Position position;\r\n    }\r\n    struct Position {\r\n        string name;\r\n        string details;\r\n        Election election;\r\n        bool exists;\r\n    }\r\n    struct Election {\r\n        string name;\r\n        string details;\r\n        State state;\r\n        bool exists;\r\n    }\r\n    enum State {\r\n        NotStarted,\r\n        Running,\r\n        Ended\r\n    }\r\n\r\n    //Mapping\r\n    mapping(string => Election) Elections;\r\n    mapping(string => Position) Positions;\r\n    mapping(address => bool) admins;\r\n    mapping(string => Candidate) Candidates;\r\n    mapping(address => Voter) Voters;\r\n\r\n    //Modifiers\r\n    modifier onlyAdmin() {\r\n        require(admins[msg.sender] == true, \"only Admin\");\r\n        _;\r\n    }\r\n    modifier registered() {\r\n        require(Voters[msg.sender].registered == true, \"Not Registered\");\r\n        _;\r\n    }\r\n    modifier notVoted() {\r\n        require(Voters[msg.sender].voted == false, \"Already Voted\");\r\n        _;\r\n    }\r\n    modifier positionExists(string memory name) {\r\n        require(Positions[name].exists == true, \"Position does not exists\");\r\n        _;\r\n    }\r\n    modifier candidateExists(string memory name) {\r\n        require(Candidates[name].exists == true, \"Candidate does not exists\");\r\n        _;\r\n    }\r\n    modifier electionExists(string memory name) {\r\n        require(Elections[name].exists == true, \"Election does not exists\");\r\n        _;\r\n    }\r\n    modifier electionNotStarted(string memory eName) {\r\n        require(Elections[eName].state == State.NotStarted, \"Started or Ended\");\r\n        _;\r\n    }\r\n    modifier electionRunning(string memory eName) {\r\n        require(Elections[eName].state == State.Running, \"Not Running\");\r\n        _;\r\n    }\r\n    modifier electionEnded(string memory eName) {\r\n        require(Elections[eName].state == State.Ended, \"Not Ended\");\r\n        _;\r\n    }\r\n\r\n    //Functions\r\n    function addAdmin() public onlyAdmin {\r\n        admins[msg.sender] = true;\r\n    }\r\n\r\n    function checkAdmin(address _address) public view returns (bool) {\r\n        return admins[_address];\r\n    }\r\n\r\n    function addElection(\r\n        string memory electionName,\r\n        string memory electionDetails\r\n    ) public onlyAdmin {\r\n        Elections[electionName].name = electionName;\r\n        Elections[electionName].details = electionDetails;\r\n        Elections[electionName].state = State.NotStarted;\r\n        Elections[electionName].exists = true;\r\n    }\r\n\r\n    function addPosition(\r\n        string memory positionName,\r\n        string memory positionDetails,\r\n        string memory electionName\r\n    )\r\n        public\r\n        onlyAdmin\r\n        electionNotStarted(electionName)\r\n        electionExists(electionName)\r\n    {\r\n        Positions[positionName].name = positionName;\r\n        Positions[positionName].details = positionDetails;\r\n        Positions[positionName].election = Elections[electionName];\r\n        Positions[positionName].exists = true;\r\n    }\r\n\r\n    function addCandidate(\r\n        string memory name,\r\n        string memory details,\r\n        string memory positionName\r\n    )\r\n        public\r\n        electionExists(Positions[positionName].election.name)\r\n        electionNotStarted(Positions[positionName].election.name)\r\n        positionExists(positionName)\r\n        onlyAdmin\r\n    {\r\n        Candidates[name].candidateName = name;\r\n        Candidates[name].candidateDetails = details;\r\n        Candidates[name].position = Positions[positionName];\r\n        Candidates[name].exists = true;\r\n        Candidates[name].voteCount = 0;\r\n    }\r\n\r\n    function getElection(string memory name)\r\n        public\r\n        view\r\n        returns (\r\n            string memory electionName,\r\n            string memory electionDetails,\r\n            State electionState\r\n        )\r\n    {\r\n        electionName = Elections[name].name;\r\n        electionDetails = Elections[name].details;\r\n        electionState = Elections[name].state;\r\n        return (electionName, electionDetails, electionState);\r\n    }\r\n\r\n    function getPosition(string memory name)\r\n        public\r\n        view\r\n        returns (\r\n            string memory positionName,\r\n            string memory positionDetails,\r\n            string memory electionName\r\n        )\r\n    {\r\n        positionName = Positions[name].name;\r\n        positionDetails = Positions[name].details;\r\n        electionName = Positions[name].election.name;\r\n        return (positionName, positionDetails, electionName);\r\n    }\r\n\r\n    function getCandidates(string memory candidateName)\r\n        public\r\n        view\r\n        returns (\r\n            string memory name,\r\n            string memory details,\r\n            bool exists,\r\n            int voteCount,\r\n            string memory position\r\n        )\r\n    {\r\n        name = Candidates[candidateName].candidateName;\r\n        details = Candidates[candidateName].candidateDetails;\r\n        exists = Candidates[candidateName].exists;\r\n        voteCount = Candidates[candidateName].voteCount;\r\n        position = Candidates[candidateName].position.name;\r\n        return (name, details, exists, voteCount, position);\r\n    }\r\n\r\n    function addVoter(\r\n        int256 voterId,\r\n        string memory voterName,\r\n        string memory electionName\r\n    ) public electionExists(electionName) electionNotStarted(electionName) {\r\n        address _address = msg.sender;\r\n        Voters[_address].voterId = voterId;\r\n        Voters[_address].voterName = voterName;\r\n        Voters[_address].election = Elections[electionName];\r\n    }\r\n\r\n    function verifyVoter(address _address)\r\n        public\r\n        onlyAdmin\r\n        electionExists(Voters[_address].election.name)\r\n        electionNotStarted(Voters[_address].election.name)\r\n    {\r\n        Voters[_address].registered = true;\r\n        Voters[_address].voted = false;\r\n    }\r\n\r\n    function vote(string memory candidateName)\r\n        public\r\n        electionRunning(Candidates[candidateName].position.election.name)\r\n        registered\r\n        notVoted\r\n        candidateExists(candidateName)\r\n        returns (bool)\r\n    {\r\n        Voters[msg.sender].voted = true;\r\n        Candidates[candidateName].voteCount++;\r\n        return true;\r\n    }\r\n\r\n    function getVoter()\r\n        public\r\n        view\r\n        returns (\r\n            int256 voterId,\r\n            bool vregistered,\r\n            bool voted\r\n        )\r\n    {\r\n        voterId = Voters[msg.sender].voterId;\r\n        vregistered = Voters[msg.sender].registered;\r\n        voted = Voters[msg.sender].voted;\r\n        return (voterId, vregistered, voted);\r\n    }\r\n\r\n    function startElection(string memory electionName)\r\n        public\r\n        onlyAdmin\r\n        electionExists(electionName)\r\n        electionNotStarted(electionName)\r\n    {\r\n        Elections[electionName].state = State.Running;\r\n    }\r\n\r\n    function endElection(string memory electionName)\r\n        public\r\n        onlyAdmin\r\n        electionExists(electionName)\r\n        electionRunning(electionName)\r\n    {\r\n        Elections[electionName].state = State.Ended;\r\n    }\r\n}\r\n",
  "sourcePath": "D:\\niischal\\decentralized_voting\\contracts\\DistributedVoting.sol",
  "compiler": {
    "name": "solc",
    "version": "0.8.17+commit.8df45f5f.Emscripten.clang"
  },
  "schemaVersion": "3.4.10",
  "updatedAt": "2022-11-06T02:47:09.906Z",
  "networkType": "ethereum",
  "devdoc": {
    "kind": "dev",
    "methods": {},
    "version": 1
  },
  "userdoc": {
    "kind": "user",
    "methods": {},
    "version": 1
  }
}