{
  "contractName": "DistributedVoting",
  "abi": [
    {
      "inputs": [],
      "stateMutability": "nonpayable",
      "type": "constructor"
    },
    {
      "inputs": [
        {
          "internalType": "uint256",
          "name": "",
          "type": "uint256"
        }
      ],
      "name": "candidateList",
      "outputs": [
        {
          "internalType": "string",
          "name": "candidateName",
          "type": "string"
        },
        {
          "internalType": "bool",
          "name": "exists",
          "type": "bool"
        },
        {
          "internalType": "int256",
          "name": "voteCount",
          "type": "int256"
        }
      ],
      "stateMutability": "view",
      "type": "function",
      "constant": true
    },
    {
      "inputs": [
        {
          "internalType": "uint256",
          "name": "",
          "type": "uint256"
        }
      ],
      "name": "voterList",
      "outputs": [
        {
          "internalType": "address",
          "name": "voterAddress",
          "type": "address"
        },
        {
          "internalType": "string",
          "name": "voterName",
          "type": "string"
        },
        {
          "internalType": "bool",
          "name": "voterExists",
          "type": "bool"
        },
        {
          "internalType": "bool",
          "name": "registered",
          "type": "bool"
        },
        {
          "internalType": "bool",
          "name": "voted",
          "type": "bool"
        }
      ],
      "stateMutability": "view",
      "type": "function",
      "constant": true
    },
    {
      "inputs": [],
      "name": "checkAdmin",
      "outputs": [
        {
          "internalType": "bool",
          "name": "",
          "type": "bool"
        }
      ],
      "stateMutability": "view",
      "type": "function",
      "constant": true
    },
    {
      "inputs": [],
      "name": "getState",
      "outputs": [
        {
          "internalType": "enum DistributedVoting.State",
          "name": "",
          "type": "uint8"
        }
      ],
      "stateMutability": "view",
      "type": "function",
      "constant": true
    },
    {
      "inputs": [
        {
          "internalType": "string",
          "name": "name",
          "type": "string"
        }
      ],
      "name": "addCandidate",
      "outputs": [],
      "stateMutability": "nonpayable",
      "type": "function"
    },
    {
      "inputs": [
        {
          "internalType": "string",
          "name": "name",
          "type": "string"
        }
      ],
      "name": "getCandidate",
      "outputs": [
        {
          "components": [
            {
              "internalType": "string",
              "name": "candidateName",
              "type": "string"
            },
            {
              "internalType": "bool",
              "name": "exists",
              "type": "bool"
            },
            {
              "internalType": "int256",
              "name": "voteCount",
              "type": "int256"
            }
          ],
          "internalType": "struct DistributedVoting.Candidate",
          "name": "candidate",
          "type": "tuple"
        }
      ],
      "stateMutability": "view",
      "type": "function",
      "constant": true
    },
    {
      "inputs": [],
      "name": "getAllCandidates",
      "outputs": [
        {
          "components": [
            {
              "internalType": "string",
              "name": "candidateName",
              "type": "string"
            },
            {
              "internalType": "bool",
              "name": "exists",
              "type": "bool"
            },
            {
              "internalType": "int256",
              "name": "voteCount",
              "type": "int256"
            }
          ],
          "internalType": "struct DistributedVoting.Candidate[]",
          "name": "",
          "type": "tuple[]"
        }
      ],
      "stateMutability": "view",
      "type": "function",
      "constant": true
    },
    {
      "inputs": [],
      "name": "startElection",
      "outputs": [],
      "stateMutability": "nonpayable",
      "type": "function"
    },
    {
      "inputs": [],
      "name": "endElection",
      "outputs": [],
      "stateMutability": "nonpayable",
      "type": "function"
    },
    {
      "inputs": [],
      "name": "resetElection",
      "outputs": [],
      "stateMutability": "nonpayable",
      "type": "function"
    },
    {
      "inputs": [
        {
          "internalType": "string",
          "name": "name",
          "type": "string"
        }
      ],
      "name": "registerVoter",
      "outputs": [],
      "stateMutability": "nonpayable",
      "type": "function"
    },
    {
      "inputs": [
        {
          "internalType": "address",
          "name": "voter",
          "type": "address"
        }
      ],
      "name": "verifyVoter",
      "outputs": [],
      "stateMutability": "nonpayable",
      "type": "function"
    },
    {
      "inputs": [],
      "name": "getAllVoters",
      "outputs": [
        {
          "components": [
            {
              "internalType": "address",
              "name": "voterAddress",
              "type": "address"
            },
            {
              "internalType": "string",
              "name": "voterName",
              "type": "string"
            },
            {
              "internalType": "bool",
              "name": "voterExists",
              "type": "bool"
            },
            {
              "internalType": "bool",
              "name": "registered",
              "type": "bool"
            },
            {
              "internalType": "bool",
              "name": "voted",
              "type": "bool"
            }
          ],
          "internalType": "struct DistributedVoting.Voter[]",
          "name": "",
          "type": "tuple[]"
        }
      ],
      "stateMutability": "view",
      "type": "function",
      "constant": true
    },
    {
      "inputs": [
        {
          "internalType": "string",
          "name": "name",
          "type": "string"
        }
      ],
      "name": "castVote",
      "outputs": [],
      "stateMutability": "nonpayable",
      "type": "function"
    }
  ],
  "bytecode": "0x608060405234801561001057600080fd5b506001600360003373ffffffffffffffffffffffffffffffffffffffff1673ffffffffffffffffffffffffffffffffffffffff16815260200190815260200160002060006101000a81548160ff021916908315150217905550612ef7806100786000396000f3fe608060405234801561001057600080fd5b50600436106100ea5760003560e01c806362d73eb81161008c578063ab15022611610066578063ab15022614610201578063b13c744b1461021f578063e8f3052314610251578063f276669d1461025b576100ea565b806362d73eb8146101bf5780636428a486146101c95780639cc2d993146101e5576100ea565b806335bbe70e116100c857806335bbe70e14610147578063462e91ec1461016557806350e2e8af1461018157806359f78468146101b5576100ea565b806309bd0950146100ef5780631865c57d1461010b5780632e6997fe14610129575b600080fd5b61010960048036038101906101049190611e10565b61028b565b005b610113610644565b6040516101209190611eb4565b60405180910390f35b61013161065a565b60405161013e91906120a5565b60405180910390f35b61014f610803565b60405161015c919061220e565b60405180910390f35b61017f600480360381019061017a9190612365565b610a2e565b005b61019b600480360381019061019691906123e4565b610c43565b6040516101ac959493929190612479565b60405180910390f35b6101bd610d58565b005b6101c7610e8b565b005b6101e360048036038101906101de9190612365565b610fbe565b005b6101ff60048036038101906101fa9190612365565b6114b1565b005b6102096116c4565b60405161021691906124d3565b60405180910390f35b610239600480360381019061023491906123e4565b611718565b604051610248939291906124fd565b60405180910390f35b6102596117e7565b005b61027560048036038101906102709190612365565b6118a6565b604051610282919061258b565b60405180910390f35b60011515600360003373ffffffffffffffffffffffffffffffffffffffff1673ffffffffffffffffffffffffffffffffffffffff16815260200190815260200160002060009054906101000a900460ff1615151461031e576040517f08c379a0000000000000000000000000000000000000000000000000000000008152600401610315906125f9565b60405180910390fd5b6000600281111561033257610331611e3d565b5b60008054906101000a900460ff16600281111561035257610351611e3d565b5b14610392576040517f08c379a000000000000000000000000000000000000000000000000000000000815260040161038990612665565b60405180910390fd5b60011515600560008373ffffffffffffffffffffffffffffffffffffffff1673ffffffffffffffffffffffffffffffffffffffff16815260200190815260200160002060020160009054906101000a900460ff16151514610428576040517f08c379a000000000000000000000000000000000000000000000000000000000815260040161041f906126d1565b60405180910390fd5b6001600560008373ffffffffffffffffffffffffffffffffffffffff1673ffffffffffffffffffffffffffffffffffffffff16815260200190815260200160002060020160016101000a81548160ff0219169083151502179055506104d26104cd600560008473ffffffffffffffffffffffffffffffffffffffff1673ffffffffffffffffffffffffffffffffffffffff168152602001908152602001600020611a0c565b611b00565b6002600560008373ffffffffffffffffffffffffffffffffffffffff1673ffffffffffffffffffffffffffffffffffffffff16815260200190815260200160002090806001815401808255809150506001900390600052602060002090600302016000909190919091506000820160009054906101000a900473ffffffffffffffffffffffffffffffffffffffff168160000160006101000a81548173ffffffffffffffffffffffffffffffffffffffff021916908373ffffffffffffffffffffffffffffffffffffffff160217905550600182018160010190816105b79190612913565b506002820160009054906101000a900460ff168160020160006101000a81548160ff0219169083151502179055506002820160019054906101000a900460ff168160020160016101000a81548160ff0219169083151502179055506002820160029054906101000a900460ff168160020160026101000a81548160ff021916908315150217905550505050565b60008060009054906101000a900460ff16905090565b606060011515600360003373ffffffffffffffffffffffffffffffffffffffff1673ffffffffffffffffffffffffffffffffffffffff16815260200190815260200160002060009054906101000a900460ff161515146106ef576040517f08c379a00000000000000000000000000000000000000000000000000000000081526004016106e6906125f9565b60405180910390fd5b6001805480602002602001604051908101604052809291908181526020016000905b828210156107fa578382906000526020600020906003020160405180606001604052908160008201805461074490612720565b80601f016020809104026020016040519081016040528092919081815260200182805461077090612720565b80156107bd5780601f10610792576101008083540402835291602001916107bd565b820191906000526020600020905b8154815290600101906020018083116107a057829003601f168201915b505050505081526020016001820160009054906101000a900460ff1615151515815260200160028201548152505081526020019060010190610711565b50505050905090565b606060011515600360003373ffffffffffffffffffffffffffffffffffffffff1673ffffffffffffffffffffffffffffffffffffffff16815260200190815260200160002060009054906101000a900460ff16151514610898576040517f08c379a000000000000000000000000000000000000000000000000000000000815260040161088f906125f9565b60405180910390fd5b6002805480602002602001604051908101604052809291908181526020016000905b82821015610a2557838290600052602060002090600302016040518060a00160405290816000820160009054906101000a900473ffffffffffffffffffffffffffffffffffffffff1673ffffffffffffffffffffffffffffffffffffffff1673ffffffffffffffffffffffffffffffffffffffff16815260200160018201805461094390612720565b80601f016020809104026020016040519081016040528092919081815260200182805461096f90612720565b80156109bc5780601f10610991576101008083540402835291602001916109bc565b820191906000526020600020905b81548152906001019060200180831161099f57829003601f168201915b505050505081526020016002820160009054906101000a900460ff161515151581526020016002820160019054906101000a900460ff161515151581526020016002820160029054906101000a900460ff161515151581525050815260200190600101906108ba565b50505050905090565b8060001515600482604051610a439190612a37565b908152602001604051809103902060010160009054906101000a900460ff16151514610aa4576040517f08c379a0000000000000000000000000000000000000000000000000000000008152600401610a9b90612a9a565b60405180910390fd5b60006002811115610ab857610ab7611e3d565b5b60008054906101000a900460ff166002811115610ad857610ad7611e3d565b5b14610b18576040517f08c379a0000000000000000000000000000000000000000000000000000000008152600401610b0f90612665565b60405180910390fd5b81600483604051610b299190612a37565b90815260200160405180910390206000019081610b469190612aba565b506001600483604051610b599190612a37565b908152602001604051809103902060010160006101000a81548160ff0219169083151502179055506000600483604051610b939190612a37565b9081526020016040518091039020600201819055506001600483604051610bba9190612a37565b9081526020016040518091039020908060018154018082558091505060019003906000526020600020906003020160009091909190915060008201816000019081610c059190612913565b506001820160009054906101000a900460ff168160010160006101000a81548160ff0219169083151502179055506002820154816002015550505050565b60028181548110610c5357600080fd5b90600052602060002090600302016000915090508060000160009054906101000a900473ffffffffffffffffffffffffffffffffffffffff1690806001018054610c9c90612720565b80601f0160208091040260200160405190810160405280929190818152602001828054610cc890612720565b8015610d155780601f10610cea57610100808354040283529160200191610d15565b820191906000526020600020905b815481529060010190602001808311610cf857829003601f168201915b5050505050908060020160009054906101000a900460ff16908060020160019054906101000a900460ff16908060020160029054906101000a900460ff16905085565b60011515600360003373ffffffffffffffffffffffffffffffffffffffff1673ffffffffffffffffffffffffffffffffffffffff16815260200190815260200160002060009054906101000a900460ff16151514610deb576040517f08c379a0000000000000000000000000000000000000000000000000000000008152600401610de2906125f9565b60405180910390fd5b60016002811115610dff57610dfe611e3d565b5b60008054906101000a900460ff166002811115610e1f57610e1e611e3d565b5b14610e5f576040517f08c379a0000000000000000000000000000000000000000000000000000000008152600401610e5690612bd8565b60405180910390fd5b60026000806101000a81548160ff02191690836002811115610e8457610e83611e3d565b5b0217905550565b60011515600360003373ffffffffffffffffffffffffffffffffffffffff1673ffffffffffffffffffffffffffffffffffffffff16815260200190815260200160002060009054906101000a900460ff16151514610f1e576040517f08c379a0000000000000000000000000000000000000000000000000000000008152600401610f15906125f9565b60405180910390fd5b60006002811115610f3257610f31611e3d565b5b60008054906101000a900460ff166002811115610f5257610f51611e3d565b5b14610f92576040517f08c379a0000000000000000000000000000000000000000000000000000000008152600401610f8990612665565b60405180910390fd5b60016000806101000a81548160ff02191690836002811115610fb757610fb6611e3d565b5b0217905550565b60001515600360003373ffffffffffffffffffffffffffffffffffffffff1673ffffffffffffffffffffffffffffffffffffffff16815260200190815260200160002060009054906101000a900460ff16151514611051576040517f08c379a000000000000000000000000000000000000000000000000000000000815260040161104890612c44565b60405180910390fd5b6000600281111561106557611064611e3d565b5b60008054906101000a900460ff16600281111561108557611084611e3d565b5b146110c5576040517f08c379a00000000000000000000000000000000000000000000000000000000081526004016110bc90612665565b60405180910390fd5b3360001515600560008373ffffffffffffffffffffffffffffffffffffffff1673ffffffffffffffffffffffffffffffffffffffff16815260200190815260200160002060020160009054906101000a900460ff1615151461115c576040517f08c379a000000000000000000000000000000000000000000000000000000000815260040161115390612cb0565b60405180910390fd5b33600560003373ffffffffffffffffffffffffffffffffffffffff1673ffffffffffffffffffffffffffffffffffffffff16815260200190815260200160002060000160006101000a81548173ffffffffffffffffffffffffffffffffffffffff021916908373ffffffffffffffffffffffffffffffffffffffff16021790555081600560003373ffffffffffffffffffffffffffffffffffffffff1673ffffffffffffffffffffffffffffffffffffffff168152602001908152602001600020600101908161122c9190612aba565b506001600560003373ffffffffffffffffffffffffffffffffffffffff1673ffffffffffffffffffffffffffffffffffffffff16815260200190815260200160002060020160006101000a81548160ff0219169083151502179055506000600560003373ffffffffffffffffffffffffffffffffffffffff1673ffffffffffffffffffffffffffffffffffffffff16815260200190815260200160002060020160016101000a81548160ff0219169083151502179055506000600560003373ffffffffffffffffffffffffffffffffffffffff1673ffffffffffffffffffffffffffffffffffffffff16815260200190815260200160002060020160026101000a81548160ff0219169083151502179055506002600560003373ffffffffffffffffffffffffffffffffffffffff1673ffffffffffffffffffffffffffffffffffffffff16815260200190815260200160002090806001815401808255809150506001900390600052602060002090600302016000909190919091506000820160009054906101000a900473ffffffffffffffffffffffffffffffffffffffff168160000160006101000a81548173ffffffffffffffffffffffffffffffffffffffff021916908373ffffffffffffffffffffffffffffffffffffffff160217905550600182018160010190816114239190612913565b506002820160009054906101000a900460ff168160020160006101000a81548160ff0219169083151502179055506002820160019054906101000a900460ff168160020160016101000a81548160ff0219169083151502179055506002820160029054906101000a900460ff168160020160026101000a81548160ff02191690831515021790555050505050565b80600115156004826040516114c69190612a37565b908152602001604051809103902060010160009054906101000a900460ff16151514611527576040517f08c379a000000000000000000000000000000000000000000000000000000000815260040161151e90612d1c565b60405180910390fd5b60001515600360003373ffffffffffffffffffffffffffffffffffffffff1673ffffffffffffffffffffffffffffffffffffffff16815260200190815260200160002060009054906101000a900460ff161515146115ba576040517f08c379a00000000000000000000000000000000000000000000000000000000081526004016115b190612c44565b60405180910390fd5b600160028111156115ce576115cd611e3d565b5b60008054906101000a900460ff1660028111156115ee576115ed611e3d565b5b1461162e576040517f08c379a000000000000000000000000000000000000000000000000000000000815260040161162590612bd8565b60405180910390fd5b60048260405161163e9190612a37565b9081526020016040518091039020600201600081548092919061166090612d6b565b91905055506001600560003373ffffffffffffffffffffffffffffffffffffffff1673ffffffffffffffffffffffffffffffffffffffff16815260200190815260200160002060020160026101000a81548160ff0219169083151502179055505050565b6000600360003373ffffffffffffffffffffffffffffffffffffffff1673ffffffffffffffffffffffffffffffffffffffff16815260200190815260200160002060009054906101000a900460ff16905090565b6001818154811061172857600080fd5b906000526020600020906003020160009150905080600001805461174b90612720565b80601f016020809104026020016040519081016040528092919081815260200182805461177790612720565b80156117c45780601f10611799576101008083540402835291602001916117c4565b820191906000526020600020905b8154815290600101906020018083116117a757829003601f168201915b5050505050908060010160009054906101000a900460ff16908060020154905083565b60011515600360003373ffffffffffffffffffffffffffffffffffffffff1673ffffffffffffffffffffffffffffffffffffffff16815260200190815260200160002060009054906101000a900460ff1615151461187a576040517f08c379a0000000000000000000000000000000000000000000000000000000008152600401611871906125f9565b60405180910390fd5b60008060006101000a81548160ff0219169083600281111561189f5761189e611e3d565b5b0217905550565b6118ae611d1e565b81600115156004826040516118c39190612a37565b908152602001604051809103902060010160009054906101000a900460ff16151514611924576040517f08c379a000000000000000000000000000000000000000000000000000000000815260040161191b90612d1c565b60405180910390fd5b6004836040516119349190612a37565b908152602001604051809103902060405180606001604052908160008201805461195d90612720565b80601f016020809104026020016040519081016040528092919081815260200182805461198990612720565b80156119d65780601f106119ab576101008083540402835291602001916119d6565b820191906000526020600020905b8154815290600101906020018083116119b957829003601f168201915b505050505081526020016001820160009054906101000a900460ff16151515158152602001600282015481525050915050919050565b600080600090505b6001600280549050611a269190612db3565b811015611ae5578260000160009054906101000a900473ffffffffffffffffffffffffffffffffffffffff1673ffffffffffffffffffffffffffffffffffffffff1660028281548110611a7c57611a7b612de7565b5b906000526020600020906003020160000160009054906101000a900473ffffffffffffffffffffffffffffffffffffffff1673ffffffffffffffffffffffffffffffffffffffff1603611ad25780915050611afb565b8080611add90612e16565b915050611a14565b506001600280549050611af89190612e5e565b90505b919050565b60008190505b600280549050811015611c7c5760028180611b2090612e16565b925081548110611b3357611b32612de7565b5b906000526020600020906003020160028281548110611b5557611b54612de7565b5b90600052602060002090600302016000820160009054906101000a900473ffffffffffffffffffffffffffffffffffffffff168160000160006101000a81548173ffffffffffffffffffffffffffffffffffffffff021916908373ffffffffffffffffffffffffffffffffffffffff16021790555060018201816001019081611bde9190612913565b506002820160009054906101000a900460ff168160020160006101000a81548160ff0219169083151502179055506002820160019054906101000a900460ff168160020160016101000a81548160ff0219169083151502179055506002820160029054906101000a900460ff168160020160026101000a81548160ff0219169083151502179055509050508080611c7490612e16565b915050611b06565b506002805480611c8f57611c8e612e92565b5b6001900381819060005260206000209060030201600080820160006101000a81549073ffffffffffffffffffffffffffffffffffffffff0219169055600182016000611cdb9190611d41565b6002820160006101000a81549060ff02191690556002820160016101000a81549060ff02191690556002820160026101000a81549060ff02191690555050905550565b604051806060016040528060608152602001600015158152602001600081525090565b508054611d4d90612720565b6000825580601f10611d5f5750611d7e565b601f016020900490600052602060002090810190611d7d9190611d81565b5b50565b5b80821115611d9a576000816000905550600101611d82565b5090565b6000604051905090565b600080fd5b600080fd5b600073ffffffffffffffffffffffffffffffffffffffff82169050919050565b6000611ddd82611db2565b9050919050565b611ded81611dd2565b8114611df857600080fd5b50565b600081359050611e0a81611de4565b92915050565b600060208284031215611e2657611e25611da8565b5b6000611e3484828501611dfb565b91505092915050565b7f4e487b7100000000000000000000000000000000000000000000000000000000600052602160045260246000fd5b60038110611e7d57611e7c611e3d565b5b50565b6000819050611e8e82611e6c565b919050565b6000611e9e82611e80565b9050919050565b611eae81611e93565b82525050565b6000602082019050611ec96000830184611ea5565b92915050565b600081519050919050565b600082825260208201905092915050565b6000819050602082019050919050565b600081519050919050565b600082825260208201905092915050565b60005b83811015611f35578082015181840152602081019050611f1a565b60008484015250505050565b6000601f19601f8301169050919050565b6000611f5d82611efb565b611f678185611f06565b9350611f77818560208601611f17565b611f8081611f41565b840191505092915050565b60008115159050919050565b611fa081611f8b565b82525050565b6000819050919050565b611fb981611fa6565b82525050565b60006060830160008301518482036000860152611fdc8282611f52565b9150506020830151611ff16020860182611f97565b5060408301516120046040860182611fb0565b508091505092915050565b600061201b8383611fbf565b905092915050565b6000602082019050919050565b600061203b82611ecf565b6120458185611eda565b93508360208202850161205785611eeb565b8060005b858110156120935784840389528151612074858261200f565b945061207f83612023565b925060208a0199505060018101905061205b565b50829750879550505050505092915050565b600060208201905081810360008301526120bf8184612030565b905092915050565b600081519050919050565b600082825260208201905092915050565b6000819050602082019050919050565b6120fc81611dd2565b82525050565b600060a08301600083015161211a60008601826120f3565b50602083015184820360208601526121328282611f52565b91505060408301516121476040860182611f97565b50606083015161215a6060860182611f97565b50608083015161216d6080860182611f97565b508091505092915050565b60006121848383612102565b905092915050565b6000602082019050919050565b60006121a4826120c7565b6121ae81856120d2565b9350836020820285016121c0856120e3565b8060005b858110156121fc57848403895281516121dd8582612178565b94506121e88361218c565b925060208a019950506001810190506121c4565b50829750879550505050505092915050565b600060208201905081810360008301526122288184612199565b905092915050565b600080fd5b600080fd5b7f4e487b7100000000000000000000000000000000000000000000000000000000600052604160045260246000fd5b61227282611f41565b810181811067ffffffffffffffff821117156122915761229061223a565b5b80604052505050565b60006122a4611d9e565b90506122b08282612269565b919050565b600067ffffffffffffffff8211156122d0576122cf61223a565b5b6122d982611f41565b9050602081019050919050565b82818337600083830152505050565b6000612308612303846122b5565b61229a565b90508281526020810184848401111561232457612323612235565b5b61232f8482856122e6565b509392505050565b600082601f83011261234c5761234b612230565b5b813561235c8482602086016122f5565b91505092915050565b60006020828403121561237b5761237a611da8565b5b600082013567ffffffffffffffff81111561239957612398611dad565b5b6123a584828501612337565b91505092915050565b6000819050919050565b6123c1816123ae565b81146123cc57600080fd5b50565b6000813590506123de816123b8565b92915050565b6000602082840312156123fa576123f9611da8565b5b6000612408848285016123cf565b91505092915050565b61241a81611dd2565b82525050565b600082825260208201905092915050565b600061243c82611efb565b6124468185612420565b9350612456818560208601611f17565b61245f81611f41565b840191505092915050565b61247381611f8b565b82525050565b600060a08201905061248e6000830188612411565b81810360208301526124a08187612431565b90506124af604083018661246a565b6124bc606083018561246a565b6124c9608083018461246a565b9695505050505050565b60006020820190506124e8600083018461246a565b92915050565b6124f781611fa6565b82525050565b600060608201905081810360008301526125178186612431565b9050612526602083018561246a565b61253360408301846124ee565b949350505050565b600060608301600083015184820360008601526125588282611f52565b915050602083015161256d6020860182611f97565b5060408301516125806040860182611fb0565b508091505092915050565b600060208201905081810360008301526125a5818461253b565b905092915050565b7f4e6f742041646d696e0000000000000000000000000000000000000000000000600082015250565b60006125e3600983612420565b91506125ee826125ad565b602082019050919050565b60006020820190508181036000830152612612816125d6565b9050919050565b7f456c656374696f6e20616c726561647920737461727465640000000000000000600082015250565b600061264f601883612420565b915061265a82612619565b602082019050919050565b6000602082019050818103600083015261267e81612642565b9050919050565b7f566f74657220646f6573206e6f74206578697374730000000000000000000000600082015250565b60006126bb601583612420565b91506126c682612685565b602082019050919050565b600060208201905081810360008301526126ea816126ae565b9050919050565b7f4e487b7100000000000000000000000000000000000000000000000000000000600052602260045260246000fd5b6000600282049050600182168061273857607f821691505b60208210810361274b5761274a6126f1565b5b50919050565b60008154905061276081612720565b9050919050565b60008190508160005260206000209050919050565b60006020601f8301049050919050565b600082821b905092915050565b6000600883026127c97fffffffffffffffffffffffffffffffffffffffffffffffffffffffffffffffff8261278c565b6127d3868361278c565b95508019841693508086168417925050509392505050565b6000819050919050565b600061281061280b612806846123ae565b6127eb565b6123ae565b9050919050565b6000819050919050565b61282a836127f5565b61283e61283682612817565b848454612799565b825550505050565b600090565b612853612846565b61285e818484612821565b505050565b5b818110156128825761287760008261284b565b600181019050612864565b5050565b601f8211156128c75761289881612767565b6128a18461277c565b810160208510156128b0578190505b6128c46128bc8561277c565b830182612863565b50505b505050565b600082821c905092915050565b60006128ea600019846008026128cc565b1980831691505092915050565b600061290383836128d9565b9150826002028217905092915050565b8181036129215750506129f9565b61292a82612751565b67ffffffffffffffff8111156129435761294261223a565b5b61294d8254612720565b612958828285612886565b6000601f8311600181146129875760008415612975578287015490505b61297f85826128f7565b8655506129f2565b601f19841661299587612767565b96506129a086612767565b60005b828110156129c8578489015482556001820191506001850194506020810190506129a3565b868310156129e557848901546129e1601f8916826128d9565b8355505b6001600288020188555050505b5050505050505b565b600081905092915050565b6000612a1182611efb565b612a1b81856129fb565b9350612a2b818560208601611f17565b80840191505092915050565b6000612a438284612a06565b915081905092915050565b7f43616e64696461746520616c7265616479206578697374730000000000000000600082015250565b6000612a84601883612420565b9150612a8f82612a4e565b602082019050919050565b60006020820190508181036000830152612ab381612a77565b9050919050565b612ac382611efb565b67ffffffffffffffff811115612adc57612adb61223a565b5b612ae68254612720565b612af1828285612886565b600060209050601f831160018114612b245760008415612b12578287015190505b612b1c85826128f7565b865550612b84565b601f198416612b3286612767565b60005b82811015612b5a57848901518255600182019150602085019450602081019050612b35565b86831015612b775784890151612b73601f8916826128d9565b8355505b6001600288020188555050505b505050505050565b7f456c656374696f6e2068617320456e6465640000000000000000000000000000600082015250565b6000612bc2601283612420565b9150612bcd82612b8c565b602082019050919050565b60006020820190508181036000830152612bf181612bb5565b9050919050565b7f41646d696e2063616e206e6f7420566f74650000000000000000000000000000600082015250565b6000612c2e601283612420565b9150612c3982612bf8565b602082019050919050565b60006020820190508181036000830152612c5d81612c21565b9050919050565b7f416c726561647920526567697374657265640000000000000000000000000000600082015250565b6000612c9a601283612420565b9150612ca582612c64565b602082019050919050565b60006020820190508181036000830152612cc981612c8d565b9050919050565b7f43616e64696461746520646f6573206e6f742065786973740000000000000000600082015250565b6000612d06601883612420565b9150612d1182612cd0565b602082019050919050565b60006020820190508181036000830152612d3581612cf9565b9050919050565b7f4e487b7100000000000000000000000000000000000000000000000000000000600052601160045260246000fd5b6000612d7682611fa6565b91507f7fffffffffffffffffffffffffffffffffffffffffffffffffffffffffffffff8203612da857612da7612d3c565b5b600182019050919050565b6000612dbe826123ae565b9150612dc9836123ae565b9250828203905081811115612de157612de0612d3c565b5b92915050565b7f4e487b7100000000000000000000000000000000000000000000000000000000600052603260045260246000fd5b6000612e21826123ae565b91507fffffffffffffffffffffffffffffffffffffffffffffffffffffffffffffffff8203612e5357612e52612d3c565b5b600182019050919050565b6000612e69826123ae565b9150612e74836123ae565b9250828201905080821115612e8c57612e8b612d3c565b5b92915050565b7f4e487b7100000000000000000000000000000000000000000000000000000000600052603160045260246000fdfea264697066735822122027da5349a5fbf0d5865f5d6b1a724a238a8204eb41df957468340ec2001097f664736f6c63430008110033",
  "immutableReferences": {},
  "source": "// SPDX-License-Identifier: GPL-3.0\r\n\r\npragma solidity ^0.8.0;\r\n\r\ncontract DistributedVoting {\r\n    constructor() {\r\n        admins[msg.sender] = true;\r\n    }\r\n\r\n    //Variable\r\n    struct Voter {\r\n        address voterAddress;\r\n        string voterName;\r\n        bool voterExists;\r\n        bool registered;\r\n        bool voted;\r\n    }\r\n    struct Candidate {\r\n        string candidateName;\r\n        bool exists;\r\n        int256 voteCount;\r\n    }\r\n\r\n    enum State {\r\n        NotStarted,\r\n        Running,\r\n        Ended\r\n    }\r\n\r\n    State state;\r\n\r\n    // Lists\r\n    Candidate[] public candidateList;\r\n    Voter[] public voterList;\r\n\r\n    // mapping\r\n    mapping(address => bool) admins;\r\n    mapping(string => Candidate) candidates;\r\n    mapping(address => Voter) voters;\r\n\r\n    //modifiers\r\n    modifier onlyAdmin() {\r\n        require(admins[msg.sender] == true, \"Not Admin\");\r\n        _;\r\n    }\r\n    modifier isVoter(address _address) {\r\n        require(voters[_address].registered == true, \"Not Register\");\r\n        _;\r\n    }\r\n\r\n    modifier candidateExists(string memory name) {\r\n        require(candidates[name].exists == true, \"Candidate does not exist\");\r\n        _;\r\n    }\r\n    modifier notStarted() {\r\n        require(state == State.NotStarted, \"Election already started\");\r\n        _;\r\n    }\r\n\r\n    modifier running() {\r\n        require(state == State.Running, \"Election has Ended\");\r\n        _;\r\n    }\r\n\r\n    modifier ended() {\r\n        require(state == State.Ended, \"Election Running or not started\");\r\n        _;\r\n    }\r\n\r\n    modifier notVoted() {\r\n        require(voters[msg.sender].voted == false, \"Already voted\");\r\n        _;\r\n    }\r\n    modifier notAdmin() {\r\n        require(admins[msg.sender] == false, \"Admin can not Vote\");\r\n        _;\r\n    }\r\n    modifier candidateNotExists(string memory name) {\r\n        require(candidates[name].exists == false, \"Candidate already exists\");\r\n        _;\r\n    }\r\n    modifier voterNotExists(address _address) {\r\n        require(voters[_address].voterExists == false, \"Already Registered\");\r\n        _;\r\n    }\r\n\r\n    //functions\r\n    function checkAdmin() public view returns (bool) {\r\n        return admins[msg.sender];\r\n    }\r\n\r\n    function getState() public view returns (State) {\r\n        return state;\r\n    }\r\n\r\n    function addCandidate(string memory name)\r\n        public\r\n        candidateNotExists(name)\r\n        notStarted\r\n    {\r\n        candidates[name].candidateName = name;\r\n        candidates[name].exists = true;\r\n        candidates[name].voteCount = 0;\r\n        candidateList.push(candidates[name]);\r\n    }\r\n\r\n    function getCandidate(string memory name)\r\n        public\r\n        view\r\n        candidateExists(name)\r\n        returns (Candidate memory candidate)\r\n    {\r\n        candidate = candidates[name];\r\n        return (candidate);\r\n    }\r\n\r\n    function getAllCandidates()\r\n        public\r\n        view\r\n        onlyAdmin\r\n        returns (Candidate[] memory)\r\n    {\r\n        return (candidateList);\r\n    }\r\n\r\n    function startElection() public onlyAdmin notStarted {\r\n        state = State.Running;\r\n    }\r\n\r\n    function endElection() public onlyAdmin running {\r\n        state = State.Ended;\r\n    }\r\n\r\n    function resetElection() public onlyAdmin {\r\n        state = State.NotStarted;\r\n    }\r\n\r\n    function registerVoter(string memory name)\r\n        public\r\n        notAdmin\r\n        notStarted\r\n        voterNotExists(msg.sender)\r\n    {\r\n        voters[msg.sender].voterAddress = msg.sender;\r\n        voters[msg.sender].voterName = name;\r\n        voters[msg.sender].voterExists = true;\r\n        voters[msg.sender].registered = false;\r\n        voters[msg.sender].voted = false;\r\n        voterList.push(voters[msg.sender]);\r\n    }\r\n\r\n    function indexOf(Voter storage searchedVoter)\r\n        private\r\n        view\r\n        returns (uint256)\r\n    {\r\n        for (uint256 i = 0; i < voterList.length - 1; i++) {\r\n            if (voterList[i].voterAddress == searchedVoter.voterAddress) {\r\n                return i;\r\n            }\r\n        }\r\n        return voterList.length + 1;\r\n    }\r\n\r\n    function removeFromArray(uint256 _index) private {\r\n        for (uint256 i = _index; i < voterList.length; i++) {\r\n            voterList[i] = voterList[i++];\r\n        }\r\n        voterList.pop();\r\n    }\r\n\r\n    function verifyVoter(address voter) public onlyAdmin notStarted {\r\n        require(voters[voter].voterExists == true, \"Voter does not exists\");\r\n        voters[voter].registered = true;\r\n\r\n        removeFromArray(indexOf(voters[voter]));\r\n        // uint256 _index = voterList.length + 1;\r\n        // for (uint256 i = 0; i < voterList.length; i++) {\r\n        //     if (voterList[i].voterAddress == voters[voter].voterAddress) {\r\n        //         _index = i;\r\n        //     }\r\n        // }\r\n        // for (uint256 i = _index; i < voterList.length - 1; i++) {\r\n        //     voterList[i] = voterList[i++];\r\n        // }\r\n        // voterList.pop();\r\n\r\n        voterList.push(voters[voter]);\r\n    }\r\n\r\n    function getAllVoters() public view onlyAdmin returns (Voter[] memory) {\r\n        return voterList;\r\n    }\r\n\r\n    function castVote(string memory name)\r\n        public\r\n        candidateExists(name)\r\n        notAdmin\r\n        running\r\n    {\r\n        candidates[name].voteCount++;\r\n        voters[msg.sender].voted = true;\r\n    }\r\n}\r\n",
  "sourcePath": "D:\\niischal\\decentralized_voting\\contracts\\DistributedVoting.sol",
  "compiler": {
    "name": "solc",
    "version": "0.8.17+commit.8df45f5f.Emscripten.clang"
  },
  "schemaVersion": "3.4.10",
  "updatedAt": "2022-11-10T12:53:27.154Z",
  "networkType": "ethereum",
  "devdoc": {
    "kind": "dev",
    "methods": {},
    "version": 1
  },
  "userdoc": {
    "kind": "user",
    "methods": {},
    "version": 1
  }
}