{
  "contractName": "DistributedVoting",
  "abi": [
    {
      "inputs": [],
      "stateMutability": "nonpayable",
      "type": "constructor"
    },
    {
      "inputs": [
        {
          "internalType": "uint256",
          "name": "",
          "type": "uint256"
        }
      ],
      "name": "candidateList",
      "outputs": [
        {
          "internalType": "string",
          "name": "candidateName",
          "type": "string"
        },
        {
          "internalType": "bool",
          "name": "exists",
          "type": "bool"
        },
        {
          "internalType": "int256",
          "name": "voteCount",
          "type": "int256"
        }
      ],
      "stateMutability": "view",
      "type": "function",
      "constant": true
    },
    {
      "inputs": [
        {
          "internalType": "uint256",
          "name": "",
          "type": "uint256"
        }
      ],
      "name": "voterList",
      "outputs": [
        {
          "internalType": "address",
          "name": "voterAddress",
          "type": "address"
        },
        {
          "internalType": "string",
          "name": "voterName",
          "type": "string"
        },
        {
          "internalType": "bool",
          "name": "voterExists",
          "type": "bool"
        },
        {
          "internalType": "bool",
          "name": "registered",
          "type": "bool"
        },
        {
          "internalType": "bool",
          "name": "voted",
          "type": "bool"
        }
      ],
      "stateMutability": "view",
      "type": "function",
      "constant": true
    },
    {
      "inputs": [],
      "name": "checkAdmin",
      "outputs": [
        {
          "internalType": "bool",
          "name": "",
          "type": "bool"
        }
      ],
      "stateMutability": "view",
      "type": "function",
      "constant": true
    },
    {
      "inputs": [],
      "name": "getState",
      "outputs": [
        {
          "internalType": "enum DistributedVoting.State",
          "name": "",
          "type": "uint8"
        }
      ],
      "stateMutability": "view",
      "type": "function",
      "constant": true
    },
    {
      "inputs": [
        {
          "internalType": "string",
          "name": "name",
          "type": "string"
        }
      ],
      "name": "addCandidate",
      "outputs": [],
      "stateMutability": "nonpayable",
      "type": "function"
    },
    {
      "inputs": [
        {
          "internalType": "string",
          "name": "name",
          "type": "string"
        }
      ],
      "name": "getCandidate",
      "outputs": [
        {
          "components": [
            {
              "internalType": "string",
              "name": "candidateName",
              "type": "string"
            },
            {
              "internalType": "bool",
              "name": "exists",
              "type": "bool"
            },
            {
              "internalType": "int256",
              "name": "voteCount",
              "type": "int256"
            }
          ],
          "internalType": "struct DistributedVoting.Candidate",
          "name": "candidate",
          "type": "tuple"
        }
      ],
      "stateMutability": "view",
      "type": "function",
      "constant": true
    },
    {
      "inputs": [],
      "name": "getAllCandidates",
      "outputs": [
        {
          "components": [
            {
              "internalType": "string",
              "name": "candidateName",
              "type": "string"
            },
            {
              "internalType": "bool",
              "name": "exists",
              "type": "bool"
            },
            {
              "internalType": "int256",
              "name": "voteCount",
              "type": "int256"
            }
          ],
          "internalType": "struct DistributedVoting.Candidate[]",
          "name": "",
          "type": "tuple[]"
        }
      ],
      "stateMutability": "view",
      "type": "function",
      "constant": true
    },
    {
      "inputs": [],
      "name": "startElection",
      "outputs": [],
      "stateMutability": "nonpayable",
      "type": "function"
    },
    {
      "inputs": [],
      "name": "endElection",
      "outputs": [],
      "stateMutability": "nonpayable",
      "type": "function"
    },
    {
      "inputs": [],
      "name": "resetElection",
      "outputs": [],
      "stateMutability": "nonpayable",
      "type": "function"
    },
    {
      "inputs": [
        {
          "internalType": "string",
          "name": "name",
          "type": "string"
        }
      ],
      "name": "registerVoter",
      "outputs": [],
      "stateMutability": "nonpayable",
      "type": "function"
    },
    {
      "inputs": [
        {
          "internalType": "address",
          "name": "_address",
          "type": "address"
        }
      ],
      "name": "verifyVoter",
      "outputs": [],
      "stateMutability": "nonpayable",
      "type": "function"
    },
    {
      "inputs": [],
      "name": "getAllVoters",
      "outputs": [
        {
          "components": [
            {
              "internalType": "address",
              "name": "voterAddress",
              "type": "address"
            },
            {
              "internalType": "string",
              "name": "voterName",
              "type": "string"
            },
            {
              "internalType": "bool",
              "name": "voterExists",
              "type": "bool"
            },
            {
              "internalType": "bool",
              "name": "registered",
              "type": "bool"
            },
            {
              "internalType": "bool",
              "name": "voted",
              "type": "bool"
            }
          ],
          "internalType": "struct DistributedVoting.Voter[]",
          "name": "",
          "type": "tuple[]"
        }
      ],
      "stateMutability": "view",
      "type": "function",
      "constant": true
    },
    {
      "inputs": [
        {
          "internalType": "string",
          "name": "name",
          "type": "string"
        }
      ],
      "name": "castVote",
      "outputs": [],
      "stateMutability": "nonpayable",
      "type": "function"
    }
  ],
  "bytecode": "0x608060405234801561001057600080fd5b506001600360003373ffffffffffffffffffffffffffffffffffffffff1673ffffffffffffffffffffffffffffffffffffffff16815260200190815260200160002060006101000a81548160ff0219169083151502179055506125ad806100786000396000f3fe608060405234801561001057600080fd5b50600436106100ea5760003560e01c806362d73eb81161008c578063ab15022611610066578063ab15022614610201578063b13c744b1461021f578063e8f3052314610251578063f276669d1461025b576100ea565b806362d73eb8146101bf5780636428a486146101c95780639cc2d993146101e5576100ea565b806335bbe70e116100c857806335bbe70e14610147578063462e91ec1461016557806350e2e8af1461018157806359f78468146101b5576100ea565b806309bd0950146100ef5780631865c57d1461010b5780632e6997fe14610129575b600080fd5b610109600480360381019061010491906116ac565b61028b565b005b6101136103ba565b6040516101209190611750565b60405180910390f35b6101316103d0565b60405161013e9190611941565b60405180910390f35b61014f610543565b60405161015c9190611aaa565b60405180910390f35b61017f600480360381019061017a9190611c01565b610738565b005b61019b60048036038101906101969190611c80565b61094d565b6040516101ac959493929190611d15565b60405180910390f35b6101bd610a62565b005b6101c7610b5f565b005b6101e360048036038101906101de9190611c01565b610c5c565b005b6101ff60048036038101906101fa9190611c01565b6110f2565b005b610209611305565b6040516102169190611d6f565b60405180910390f35b61023960048036038101906102349190611c80565b611359565b60405161024893929190611d99565b60405180910390f35b610259611428565b005b61027560048036038101906102709190611c01565b6114b1565b6040516102829190611e27565b60405180910390f35b60011515600360003373ffffffffffffffffffffffffffffffffffffffff1673ffffffffffffffffffffffffffffffffffffffff16815260200190815260200160002060009054906101000a900460ff161515146102e857600080fd5b600060028111156102fc576102fb6116d9565b5b60008054906101000a900460ff16600281111561031c5761031b6116d9565b5b1461035c576040517f08c379a000000000000000000000000000000000000000000000000000000000815260040161035390611e95565b60405180910390fd5b6001600560008373ffffffffffffffffffffffffffffffffffffffff1673ffffffffffffffffffffffffffffffffffffffff16815260200190815260200160002060020160016101000a81548160ff02191690831515021790555050565b60008060009054906101000a900460ff16905090565b606060011515600360003373ffffffffffffffffffffffffffffffffffffffff1673ffffffffffffffffffffffffffffffffffffffff16815260200190815260200160002060009054906101000a900460ff1615151461042f57600080fd5b6001805480602002602001604051908101604052809291908181526020016000905b8282101561053a578382906000526020600020906003020160405180606001604052908160008201805461048490611ee4565b80601f01602080910402602001604051908101604052809291908181526020018280546104b090611ee4565b80156104fd5780601f106104d2576101008083540402835291602001916104fd565b820191906000526020600020905b8154815290600101906020018083116104e057829003601f168201915b505050505081526020016001820160009054906101000a900460ff1615151515815260200160028201548152505081526020019060010190610451565b50505050905090565b606060011515600360003373ffffffffffffffffffffffffffffffffffffffff1673ffffffffffffffffffffffffffffffffffffffff16815260200190815260200160002060009054906101000a900460ff161515146105a257600080fd5b6002805480602002602001604051908101604052809291908181526020016000905b8282101561072f57838290600052602060002090600302016040518060a00160405290816000820160009054906101000a900473ffffffffffffffffffffffffffffffffffffffff1673ffffffffffffffffffffffffffffffffffffffff1673ffffffffffffffffffffffffffffffffffffffff16815260200160018201805461064d90611ee4565b80601f016020809104026020016040519081016040528092919081815260200182805461067990611ee4565b80156106c65780601f1061069b576101008083540402835291602001916106c6565b820191906000526020600020905b8154815290600101906020018083116106a957829003601f168201915b505050505081526020016002820160009054906101000a900460ff161515151581526020016002820160019054906101000a900460ff161515151581526020016002820160029054906101000a900460ff161515151581525050815260200190600101906105c4565b50505050905090565b806000151560048260405161074d9190611f51565b908152602001604051809103902060010160009054906101000a900460ff161515146107ae576040517f08c379a00000000000000000000000000000000000000000000000000000000081526004016107a590611fb4565b60405180910390fd5b600060028111156107c2576107c16116d9565b5b60008054906101000a900460ff1660028111156107e2576107e16116d9565b5b14610822576040517f08c379a000000000000000000000000000000000000000000000000000000000815260040161081990611e95565b60405180910390fd5b816004836040516108339190611f51565b908152602001604051809103902060000190816108509190612180565b5060016004836040516108639190611f51565b908152602001604051809103902060010160006101000a81548160ff021916908315150217905550600060048360405161089d9190611f51565b90815260200160405180910390206002018190555060016004836040516108c49190611f51565b908152602001604051809103902090806001815401808255809150506001900390600052602060002090600302016000909190919091506000820181600001908161090f9190612268565b506001820160009054906101000a900460ff168160010160006101000a81548160ff0219169083151502179055506002820154816002015550505050565b6002818154811061095d57600080fd5b90600052602060002090600302016000915090508060000160009054906101000a900473ffffffffffffffffffffffffffffffffffffffff16908060010180546109a690611ee4565b80601f01602080910402602001604051908101604052809291908181526020018280546109d290611ee4565b8015610a1f5780601f106109f457610100808354040283529160200191610a1f565b820191906000526020600020905b815481529060010190602001808311610a0257829003601f168201915b5050505050908060020160009054906101000a900460ff16908060020160019054906101000a900460ff16908060020160029054906101000a900460ff16905085565b60011515600360003373ffffffffffffffffffffffffffffffffffffffff1673ffffffffffffffffffffffffffffffffffffffff16815260200190815260200160002060009054906101000a900460ff16151514610abf57600080fd5b60016002811115610ad357610ad26116d9565b5b60008054906101000a900460ff166002811115610af357610af26116d9565b5b14610b33576040517f08c379a0000000000000000000000000000000000000000000000000000000008152600401610b2a9061239c565b60405180910390fd5b60026000806101000a81548160ff02191690836002811115610b5857610b576116d9565b5b0217905550565b60011515600360003373ffffffffffffffffffffffffffffffffffffffff1673ffffffffffffffffffffffffffffffffffffffff16815260200190815260200160002060009054906101000a900460ff16151514610bbc57600080fd5b60006002811115610bd057610bcf6116d9565b5b60008054906101000a900460ff166002811115610bf057610bef6116d9565b5b14610c30576040517f08c379a0000000000000000000000000000000000000000000000000000000008152600401610c2790611e95565b60405180910390fd5b60016000806101000a81548160ff02191690836002811115610c5557610c546116d9565b5b0217905550565b60001515600360003373ffffffffffffffffffffffffffffffffffffffff1673ffffffffffffffffffffffffffffffffffffffff16815260200190815260200160002060009054906101000a900460ff16151514610cef576040517f08c379a0000000000000000000000000000000000000000000000000000000008152600401610ce690612408565b60405180910390fd5b60006002811115610d0357610d026116d9565b5b60008054906101000a900460ff166002811115610d2357610d226116d9565b5b14610d63576040517f08c379a0000000000000000000000000000000000000000000000000000000008152600401610d5a90611e95565b60405180910390fd5b60001515600560003373ffffffffffffffffffffffffffffffffffffffff1673ffffffffffffffffffffffffffffffffffffffff16815260200190815260200160002060020160009054906101000a900460ff16151514610df9576040517f08c379a0000000000000000000000000000000000000000000000000000000008152600401610df090612474565b60405180910390fd5b33600560003373ffffffffffffffffffffffffffffffffffffffff1673ffffffffffffffffffffffffffffffffffffffff16815260200190815260200160002060000160006101000a81548173ffffffffffffffffffffffffffffffffffffffff021916908373ffffffffffffffffffffffffffffffffffffffff16021790555080600560003373ffffffffffffffffffffffffffffffffffffffff1673ffffffffffffffffffffffffffffffffffffffff1681526020019081526020016000206001019081610ec99190612180565b506000600560003373ffffffffffffffffffffffffffffffffffffffff1673ffffffffffffffffffffffffffffffffffffffff16815260200190815260200160002060020160016101000a81548160ff0219169083151502179055506000600560003373ffffffffffffffffffffffffffffffffffffffff1673ffffffffffffffffffffffffffffffffffffffff16815260200190815260200160002060020160026101000a81548160ff0219169083151502179055506002600560003373ffffffffffffffffffffffffffffffffffffffff1673ffffffffffffffffffffffffffffffffffffffff16815260200190815260200160002090806001815401808255809150506001900390600052602060002090600302016000909190919091506000820160009054906101000a900473ffffffffffffffffffffffffffffffffffffffff168160000160006101000a81548173ffffffffffffffffffffffffffffffffffffffff021916908373ffffffffffffffffffffffffffffffffffffffff160217905550600182018160010190816110659190612268565b506002820160009054906101000a900460ff168160020160006101000a81548160ff0219169083151502179055506002820160019054906101000a900460ff168160020160016101000a81548160ff0219169083151502179055506002820160029054906101000a900460ff168160020160026101000a81548160ff021916908315150217905550505050565b80600115156004826040516111079190611f51565b908152602001604051809103902060010160009054906101000a900460ff16151514611168576040517f08c379a000000000000000000000000000000000000000000000000000000000815260040161115f906124e0565b60405180910390fd5b60001515600360003373ffffffffffffffffffffffffffffffffffffffff1673ffffffffffffffffffffffffffffffffffffffff16815260200190815260200160002060009054906101000a900460ff161515146111fb576040517f08c379a00000000000000000000000000000000000000000000000000000000081526004016111f290612408565b60405180910390fd5b6001600281111561120f5761120e6116d9565b5b60008054906101000a900460ff16600281111561122f5761122e6116d9565b5b1461126f576040517f08c379a00000000000000000000000000000000000000000000000000000000081526004016112669061239c565b60405180910390fd5b60048260405161127f9190611f51565b908152602001604051809103902060020160008154809291906112a19061252f565b91905055506001600560003373ffffffffffffffffffffffffffffffffffffffff1673ffffffffffffffffffffffffffffffffffffffff16815260200190815260200160002060020160026101000a81548160ff0219169083151502179055505050565b6000600360003373ffffffffffffffffffffffffffffffffffffffff1673ffffffffffffffffffffffffffffffffffffffff16815260200190815260200160002060009054906101000a900460ff16905090565b6001818154811061136957600080fd5b906000526020600020906003020160009150905080600001805461138c90611ee4565b80601f01602080910402602001604051908101604052809291908181526020018280546113b890611ee4565b80156114055780601f106113da57610100808354040283529160200191611405565b820191906000526020600020905b8154815290600101906020018083116113e857829003601f168201915b5050505050908060010160009054906101000a900460ff16908060020154905083565b60011515600360003373ffffffffffffffffffffffffffffffffffffffff1673ffffffffffffffffffffffffffffffffffffffff16815260200190815260200160002060009054906101000a900460ff1615151461148557600080fd5b60008060006101000a81548160ff021916908360028111156114aa576114a96116d9565b5b0217905550565b6114b9611617565b81600115156004826040516114ce9190611f51565b908152602001604051809103902060010160009054906101000a900460ff1615151461152f576040517f08c379a0000000000000000000000000000000000000000000000000000000008152600401611526906124e0565b60405180910390fd5b60048360405161153f9190611f51565b908152602001604051809103902060405180606001604052908160008201805461156890611ee4565b80601f016020809104026020016040519081016040528092919081815260200182805461159490611ee4565b80156115e15780601f106115b6576101008083540402835291602001916115e1565b820191906000526020600020905b8154815290600101906020018083116115c457829003601f168201915b505050505081526020016001820160009054906101000a900460ff16151515158152602001600282015481525050915050919050565b604051806060016040528060608152602001600015158152602001600081525090565b6000604051905090565b600080fd5b600080fd5b600073ffffffffffffffffffffffffffffffffffffffff82169050919050565b60006116798261164e565b9050919050565b6116898161166e565b811461169457600080fd5b50565b6000813590506116a681611680565b92915050565b6000602082840312156116c2576116c1611644565b5b60006116d084828501611697565b91505092915050565b7f4e487b7100000000000000000000000000000000000000000000000000000000600052602160045260246000fd5b60038110611719576117186116d9565b5b50565b600081905061172a82611708565b919050565b600061173a8261171c565b9050919050565b61174a8161172f565b82525050565b60006020820190506117656000830184611741565b92915050565b600081519050919050565b600082825260208201905092915050565b6000819050602082019050919050565b600081519050919050565b600082825260208201905092915050565b60005b838110156117d15780820151818401526020810190506117b6565b60008484015250505050565b6000601f19601f8301169050919050565b60006117f982611797565b61180381856117a2565b93506118138185602086016117b3565b61181c816117dd565b840191505092915050565b60008115159050919050565b61183c81611827565b82525050565b6000819050919050565b61185581611842565b82525050565b6000606083016000830151848203600086015261187882826117ee565b915050602083015161188d6020860182611833565b5060408301516118a0604086018261184c565b508091505092915050565b60006118b7838361185b565b905092915050565b6000602082019050919050565b60006118d78261176b565b6118e18185611776565b9350836020820285016118f385611787565b8060005b8581101561192f578484038952815161191085826118ab565b945061191b836118bf565b925060208a019950506001810190506118f7565b50829750879550505050505092915050565b6000602082019050818103600083015261195b81846118cc565b905092915050565b600081519050919050565b600082825260208201905092915050565b6000819050602082019050919050565b6119988161166e565b82525050565b600060a0830160008301516119b6600086018261198f565b50602083015184820360208601526119ce82826117ee565b91505060408301516119e36040860182611833565b5060608301516119f66060860182611833565b506080830151611a096080860182611833565b508091505092915050565b6000611a20838361199e565b905092915050565b6000602082019050919050565b6000611a4082611963565b611a4a818561196e565b935083602082028501611a5c8561197f565b8060005b85811015611a985784840389528151611a798582611a14565b9450611a8483611a28565b925060208a01995050600181019050611a60565b50829750879550505050505092915050565b60006020820190508181036000830152611ac48184611a35565b905092915050565b600080fd5b600080fd5b7f4e487b7100000000000000000000000000000000000000000000000000000000600052604160045260246000fd5b611b0e826117dd565b810181811067ffffffffffffffff82111715611b2d57611b2c611ad6565b5b80604052505050565b6000611b4061163a565b9050611b4c8282611b05565b919050565b600067ffffffffffffffff821115611b6c57611b6b611ad6565b5b611b75826117dd565b9050602081019050919050565b82818337600083830152505050565b6000611ba4611b9f84611b51565b611b36565b905082815260208101848484011115611bc057611bbf611ad1565b5b611bcb848285611b82565b509392505050565b600082601f830112611be857611be7611acc565b5b8135611bf8848260208601611b91565b91505092915050565b600060208284031215611c1757611c16611644565b5b600082013567ffffffffffffffff811115611c3557611c34611649565b5b611c4184828501611bd3565b91505092915050565b6000819050919050565b611c5d81611c4a565b8114611c6857600080fd5b50565b600081359050611c7a81611c54565b92915050565b600060208284031215611c9657611c95611644565b5b6000611ca484828501611c6b565b91505092915050565b611cb68161166e565b82525050565b600082825260208201905092915050565b6000611cd882611797565b611ce28185611cbc565b9350611cf28185602086016117b3565b611cfb816117dd565b840191505092915050565b611d0f81611827565b82525050565b600060a082019050611d2a6000830188611cad565b8181036020830152611d3c8187611ccd565b9050611d4b6040830186611d06565b611d586060830185611d06565b611d656080830184611d06565b9695505050505050565b6000602082019050611d846000830184611d06565b92915050565b611d9381611842565b82525050565b60006060820190508181036000830152611db38186611ccd565b9050611dc26020830185611d06565b611dcf6040830184611d8a565b949350505050565b60006060830160008301518482036000860152611df482826117ee565b9150506020830151611e096020860182611833565b506040830151611e1c604086018261184c565b508091505092915050565b60006020820190508181036000830152611e418184611dd7565b905092915050565b7f456c656374696f6e206e6f742053746172746564000000000000000000000000600082015250565b6000611e7f601483611cbc565b9150611e8a82611e49565b602082019050919050565b60006020820190508181036000830152611eae81611e72565b9050919050565b7f4e487b7100000000000000000000000000000000000000000000000000000000600052602260045260246000fd5b60006002820490506001821680611efc57607f821691505b602082108103611f0f57611f0e611eb5565b5b50919050565b600081905092915050565b6000611f2b82611797565b611f358185611f15565b9350611f458185602086016117b3565b80840191505092915050565b6000611f5d8284611f20565b915081905092915050565b7f43616e64696461746520616c7265616479206578697374730000000000000000600082015250565b6000611f9e601883611cbc565b9150611fa982611f68565b602082019050919050565b60006020820190508181036000830152611fcd81611f91565b9050919050565b60008190508160005260206000209050919050565b60006020601f8301049050919050565b600082821b905092915050565b6000600883026120367fffffffffffffffffffffffffffffffffffffffffffffffffffffffffffffffff82611ff9565b6120408683611ff9565b95508019841693508086168417925050509392505050565b6000819050919050565b600061207d61207861207384611c4a565b612058565b611c4a565b9050919050565b6000819050919050565b61209783612062565b6120ab6120a382612084565b848454612006565b825550505050565b600090565b6120c06120b3565b6120cb81848461208e565b505050565b5b818110156120ef576120e46000826120b8565b6001810190506120d1565b5050565b601f8211156121345761210581611fd4565b61210e84611fe9565b8101602085101561211d578190505b61213161212985611fe9565b8301826120d0565b50505b505050565b600082821c905092915050565b600061215760001984600802612139565b1980831691505092915050565b60006121708383612146565b9150826002028217905092915050565b61218982611797565b67ffffffffffffffff8111156121a2576121a1611ad6565b5b6121ac8254611ee4565b6121b78282856120f3565b600060209050601f8311600181146121ea57600084156121d8578287015190505b6121e28582612164565b86555061224a565b601f1984166121f886611fd4565b60005b82811015612220578489015182556001820191506020850194506020810190506121fb565b8683101561223d5784890151612239601f891682612146565b8355505b6001600288020188555050505b505050505050565b60008154905061226181611ee4565b9050919050565b81810361227657505061234e565b61227f82612252565b67ffffffffffffffff81111561229857612297611ad6565b5b6122a28254611ee4565b6122ad8282856120f3565b6000601f8311600181146122dc57600084156122ca578287015490505b6122d48582612164565b865550612347565b601f1984166122ea87611fd4565b96506122f586611fd4565b60005b8281101561231d578489015482556001820191506001850194506020810190506122f8565b8683101561233a5784890154612336601f891682612146565b8355505b6001600288020188555050505b5050505050505b565b7f456c656374696f6e2069732052756e6e696e6700000000000000000000000000600082015250565b6000612386601383611cbc565b915061239182612350565b602082019050919050565b600060208201905081810360008301526123b581612379565b9050919050565b7f41646d696e2063616e206e6f7420566f74650000000000000000000000000000600082015250565b60006123f2601283611cbc565b91506123fd826123bc565b602082019050919050565b60006020820190508181036000830152612421816123e5565b9050919050565b7f416c726561647920526567697374657265640000000000000000000000000000600082015250565b600061245e601283611cbc565b915061246982612428565b602082019050919050565b6000602082019050818103600083015261248d81612451565b9050919050565b7f43616e64696461746520646f6573206e6f742065786973740000000000000000600082015250565b60006124ca601883611cbc565b91506124d582612494565b602082019050919050565b600060208201905081810360008301526124f9816124bd565b9050919050565b7f4e487b7100000000000000000000000000000000000000000000000000000000600052601160045260246000fd5b600061253a82611842565b91507f7fffffffffffffffffffffffffffffffffffffffffffffffffffffffffffffff820361256c5761256b612500565b5b60018201905091905056fea26469706673582212207aefc7f947bee185c5c90a160e4f1799ab52236fc6b7e229cc4c87e5a87a57ba64736f6c63430008110033",
  "immutableReferences": {},
  "source": "// SPDX-License-Identifier: GPL-3.0\r\n\r\npragma solidity ^0.8.0;\r\n\r\ncontract DistributedVoting {\r\n    constructor() {\r\n        admins[msg.sender] = true;\r\n    }\r\n\r\n    //Variable\r\n    struct Voter {\r\n        address voterAddress;\r\n        string voterName;\r\n        bool voterExists;\r\n        bool registered;\r\n        bool voted;\r\n    }\r\n    struct Candidate {\r\n        string candidateName;\r\n        bool exists;\r\n        int256 voteCount;\r\n    }\r\n\r\n    enum State {\r\n        NotStarted,\r\n        Running,\r\n        Ended\r\n    }\r\n\r\n    State state;\r\n\r\n    // Lists\r\n    Candidate[] public candidateList;\r\n    Voter[] public voterList;\r\n\r\n    // mapping\r\n    mapping(address => bool) admins;\r\n    mapping(string => Candidate) candidates;\r\n    mapping(address => Voter) voters;\r\n\r\n    //modifiers\r\n    modifier onlyAdmin() {\r\n        require(admins[msg.sender] == true);\r\n        _;\r\n    }\r\n    modifier isVoter(address _address) {\r\n        require(voters[_address].registered == true, \"Not Register\");\r\n        _;\r\n    }\r\n\r\n    modifier candidateExists(string memory name) {\r\n        require(candidates[name].exists == true, \"Candidate does not exist\");\r\n        _;\r\n    }\r\n    modifier notStarted() {\r\n        require(state == State.NotStarted, \"Election not Started\");\r\n        _;\r\n    }\r\n\r\n    modifier running() {\r\n        require(state == State.Running, \"Election is Running\");\r\n        _;\r\n    }\r\n\r\n    modifier ended() {\r\n        require(state == State.Ended, \"Election Ended\");\r\n        _;\r\n    }\r\n\r\n    modifier notVoted() {\r\n        require(voters[msg.sender].voted == false, \"Already voted\");\r\n        _;\r\n    }\r\n    modifier notAdmin() {\r\n        require(admins[msg.sender] == false, \"Admin can not Vote\");\r\n        _;\r\n    }\r\n    modifier candidateNotExists(string memory name) {\r\n        require(candidates[name].exists == false, \"Candidate already exists\");\r\n        _;\r\n    }\r\n\r\n    //functions\r\n    function checkAdmin() public view returns (bool) {\r\n        return admins[msg.sender];\r\n    }\r\n\r\n    function getState() public view returns (State) {\r\n        return state;\r\n    }\r\n\r\n    function addCandidate(string memory name)\r\n        public\r\n        candidateNotExists(name)\r\n        notStarted\r\n    {\r\n        candidates[name].candidateName = name;\r\n        candidates[name].exists = true;\r\n        candidates[name].voteCount = 0;\r\n        candidateList.push(candidates[name]);\r\n    }\r\n\r\n    function getCandidate(string memory name)\r\n        public\r\n        view\r\n        candidateExists(name)\r\n        returns (Candidate memory candidate)\r\n    {\r\n        candidate = candidates[name];\r\n        return (candidate);\r\n    }\r\n\r\n    function getAllCandidates()\r\n        public\r\n        view\r\n        onlyAdmin\r\n        returns (Candidate[] memory)\r\n    {\r\n        return (candidateList);\r\n    }\r\n\r\n    function startElection() public onlyAdmin notStarted {\r\n        state = State.Running;\r\n    }\r\n\r\n    function endElection() public onlyAdmin running {\r\n        state = State.Ended;\r\n    }\r\n\r\n    function resetElection() public onlyAdmin {\r\n        state = State.NotStarted;\r\n    }\r\n\r\n    function registerVoter(string memory name) public notAdmin notStarted {\r\n        require(voters[msg.sender].voterExists == false, \"Already Registered\");\r\n        voters[msg.sender].voterAddress = msg.sender;\r\n        voters[msg.sender].voterName = name;\r\n        voters[msg.sender].registered = false;\r\n        voters[msg.sender].voted = false;\r\n        voterList.push(voters[msg.sender]);\r\n    }\r\n\r\n    function verifyVoter(address _address) public onlyAdmin notStarted {\r\n        voters[_address].registered = true;\r\n    }\r\n\r\n    function getAllVoters() public view onlyAdmin returns (Voter[] memory) {\r\n        return voterList;\r\n    }\r\n\r\n    function castVote(string memory name)\r\n        public\r\n        candidateExists(name)\r\n        notAdmin\r\n        running\r\n    {\r\n        candidates[name].voteCount++;\r\n        voters[msg.sender].voted = true;\r\n    }\r\n}\r\n",
  "sourcePath": "D:\\niischal\\decentralized_voting\\contracts\\DistributedVoting.sol",
  "compiler": {
    "name": "solc",
    "version": "0.8.17+commit.8df45f5f.Emscripten.clang"
  },
  "schemaVersion": "3.4.10",
  "updatedAt": "2022-11-10T09:26:40.635Z",
  "networkType": "ethereum",
  "devdoc": {
    "kind": "dev",
    "methods": {},
    "version": 1
  },
  "userdoc": {
    "kind": "user",
    "methods": {},
    "version": 1
  }
}