{
  "contractName": "DistributedVoting",
  "abi": [
    {
      "inputs": [],
      "stateMutability": "nonpayable",
      "type": "constructor"
    },
    {
      "inputs": [
        {
          "internalType": "uint256",
          "name": "",
          "type": "uint256"
        }
      ],
      "name": "candidateList",
      "outputs": [
        {
          "internalType": "string",
          "name": "candidateName",
          "type": "string"
        },
        {
          "internalType": "bool",
          "name": "exists",
          "type": "bool"
        },
        {
          "internalType": "int256",
          "name": "voteCount",
          "type": "int256"
        }
      ],
      "stateMutability": "view",
      "type": "function",
      "constant": true
    },
    {
      "inputs": [
        {
          "internalType": "uint256",
          "name": "",
          "type": "uint256"
        }
      ],
      "name": "voterList",
      "outputs": [
        {
          "internalType": "address",
          "name": "voterAddress",
          "type": "address"
        },
        {
          "internalType": "string",
          "name": "voterName",
          "type": "string"
        },
        {
          "internalType": "bool",
          "name": "registered",
          "type": "bool"
        },
        {
          "internalType": "bool",
          "name": "voted",
          "type": "bool"
        }
      ],
      "stateMutability": "view",
      "type": "function",
      "constant": true
    },
    {
      "inputs": [],
      "name": "checkAdmin",
      "outputs": [
        {
          "internalType": "bool",
          "name": "",
          "type": "bool"
        }
      ],
      "stateMutability": "view",
      "type": "function",
      "constant": true
    },
    {
      "inputs": [],
      "name": "getState",
      "outputs": [
        {
          "internalType": "enum DistributedVoting.State",
          "name": "",
          "type": "uint8"
        }
      ],
      "stateMutability": "view",
      "type": "function",
      "constant": true
    },
    {
      "inputs": [
        {
          "internalType": "string",
          "name": "name",
          "type": "string"
        }
      ],
      "name": "addCandidate",
      "outputs": [],
      "stateMutability": "nonpayable",
      "type": "function"
    },
    {
      "inputs": [
        {
          "internalType": "string",
          "name": "name",
          "type": "string"
        }
      ],
      "name": "getCandidate",
      "outputs": [
        {
          "components": [
            {
              "internalType": "string",
              "name": "candidateName",
              "type": "string"
            },
            {
              "internalType": "bool",
              "name": "exists",
              "type": "bool"
            },
            {
              "internalType": "int256",
              "name": "voteCount",
              "type": "int256"
            }
          ],
          "internalType": "struct DistributedVoting.Candidate",
          "name": "candidate",
          "type": "tuple"
        }
      ],
      "stateMutability": "view",
      "type": "function",
      "constant": true
    },
    {
      "inputs": [],
      "name": "getAllCandidates",
      "outputs": [
        {
          "components": [
            {
              "internalType": "string",
              "name": "candidateName",
              "type": "string"
            },
            {
              "internalType": "bool",
              "name": "exists",
              "type": "bool"
            },
            {
              "internalType": "int256",
              "name": "voteCount",
              "type": "int256"
            }
          ],
          "internalType": "struct DistributedVoting.Candidate[]",
          "name": "",
          "type": "tuple[]"
        }
      ],
      "stateMutability": "view",
      "type": "function",
      "constant": true
    },
    {
      "inputs": [],
      "name": "startElection",
      "outputs": [],
      "stateMutability": "nonpayable",
      "type": "function"
    },
    {
      "inputs": [],
      "name": "endElection",
      "outputs": [],
      "stateMutability": "nonpayable",
      "type": "function"
    },
    {
      "inputs": [],
      "name": "resetElection",
      "outputs": [],
      "stateMutability": "nonpayable",
      "type": "function"
    },
    {
      "inputs": [
        {
          "internalType": "string",
          "name": "name",
          "type": "string"
        }
      ],
      "name": "registerVoter",
      "outputs": [],
      "stateMutability": "nonpayable",
      "type": "function"
    },
    {
      "inputs": [
        {
          "internalType": "address",
          "name": "_address",
          "type": "address"
        }
      ],
      "name": "verifyVoter",
      "outputs": [],
      "stateMutability": "nonpayable",
      "type": "function"
    },
    {
      "inputs": [],
      "name": "getVoters",
      "outputs": [
        {
          "components": [
            {
              "internalType": "address",
              "name": "voterAddress",
              "type": "address"
            },
            {
              "internalType": "string",
              "name": "voterName",
              "type": "string"
            },
            {
              "internalType": "bool",
              "name": "registered",
              "type": "bool"
            },
            {
              "internalType": "bool",
              "name": "voted",
              "type": "bool"
            }
          ],
          "internalType": "struct DistributedVoting.Voter[]",
          "name": "",
          "type": "tuple[]"
        }
      ],
      "stateMutability": "view",
      "type": "function",
      "constant": true
    },
    {
      "inputs": [
        {
          "internalType": "string",
          "name": "name",
          "type": "string"
        }
      ],
      "name": "castVote",
      "outputs": [],
      "stateMutability": "nonpayable",
      "type": "function"
    }
  ],
  "bytecode": "0x608060405234801561001057600080fd5b506001600360003373ffffffffffffffffffffffffffffffffffffffff1673ffffffffffffffffffffffffffffffffffffffff16815260200190815260200160002060006101000a81548160ff02191690831515021790555061234b806100786000396000f3fe608060405234801561001057600080fd5b50600436106100ea5760003560e01c80636428a4861161008c578063b13c744b11610066578063b13c744b14610200578063cdd7225314610232578063e8f3052314610250578063f276669d1461025a576100ea565b80636428a486146101aa5780639cc2d993146101c6578063ab150226146101e2576100ea565b8063462e91ec116100c8578063462e91ec1461014757806350e2e8af1461016357806359f784681461019657806362d73eb8146101a0576100ea565b806309bd0950146100ef5780631865c57d1461010b5780632e6997fe14610129575b600080fd5b61010960048036038101906101049190611543565b61028a565b005b6101136103b9565b60405161012091906115e7565b60405180910390f35b6101316103cf565b60405161013e91906117d8565b60405180910390f35b610161600480360381019061015c919061192f565b610542565b005b61017d600480360381019061017891906119ae565b6106e0565b60405161018d9493929190611a43565b60405180910390f35b61019e6107e2565b005b6101a86108df565b005b6101c460048036038101906101bf919061192f565b6109dc565b005b6101e060048036038101906101db919061192f565b610daf565b005b6101ea610fc2565b6040516101f79190611a8f565b60405180910390f35b61021a600480360381019061021591906119ae565b611016565b60405161022993929190611ab9565b60405180910390f35b61023a6110e5565b6040516102479190611c2b565b60405180910390f35b6102586112bf565b005b610274600480360381019061026f919061192f565b611348565b6040516102819190611c9d565b60405180910390f35b60011515600360003373ffffffffffffffffffffffffffffffffffffffff1673ffffffffffffffffffffffffffffffffffffffff16815260200190815260200160002060009054906101000a900460ff161515146102e757600080fd5b600060028111156102fb576102fa611570565b5b60008054906101000a900460ff16600281111561031b5761031a611570565b5b1461035b576040517f08c379a000000000000000000000000000000000000000000000000000000000815260040161035290611d0b565b60405180910390fd5b6001600560008373ffffffffffffffffffffffffffffffffffffffff1673ffffffffffffffffffffffffffffffffffffffff16815260200190815260200160002060020160006101000a81548160ff02191690831515021790555050565b60008060009054906101000a900460ff16905090565b606060011515600360003373ffffffffffffffffffffffffffffffffffffffff1673ffffffffffffffffffffffffffffffffffffffff16815260200190815260200160002060009054906101000a900460ff1615151461042e57600080fd5b6001805480602002602001604051908101604052809291908181526020016000905b82821015610539578382906000526020600020906003020160405180606001604052908160008201805461048390611d5a565b80601f01602080910402602001604051908101604052809291908181526020018280546104af90611d5a565b80156104fc5780601f106104d1576101008083540402835291602001916104fc565b820191906000526020600020905b8154815290600101906020018083116104df57829003601f168201915b505050505081526020016001820160009054906101000a900460ff1615151515815260200160028201548152505081526020019060010190610450565b50505050905090565b6000600281111561055657610555611570565b5b60008054906101000a900460ff16600281111561057657610575611570565b5b146105b6576040517f08c379a00000000000000000000000000000000000000000000000000000000081526004016105ad90611d0b565b60405180910390fd5b806004826040516105c79190611dc7565b908152602001604051809103902060000190816105e49190611f8a565b5060016004826040516105f79190611dc7565b908152602001604051809103902060010160006101000a81548160ff02191690831515021790555060006004826040516106319190611dc7565b90815260200160405180910390206002018190555060016004826040516106589190611dc7565b90815260200160405180910390209080600181540180825580915050600190039060005260206000209060030201600090919091909150600082018160000190816106a39190612072565b506001820160009054906101000a900460ff168160010160006101000a81548160ff02191690831515021790555060028201548160020155505050565b600281815481106106f057600080fd5b90600052602060002090600302016000915090508060000160009054906101000a900473ffffffffffffffffffffffffffffffffffffffff169080600101805461073990611d5a565b80601f016020809104026020016040519081016040528092919081815260200182805461076590611d5a565b80156107b25780601f10610787576101008083540402835291602001916107b2565b820191906000526020600020905b81548152906001019060200180831161079557829003601f168201915b5050505050908060020160009054906101000a900460ff16908060020160019054906101000a900460ff16905084565b60011515600360003373ffffffffffffffffffffffffffffffffffffffff1673ffffffffffffffffffffffffffffffffffffffff16815260200190815260200160002060009054906101000a900460ff1615151461083f57600080fd5b6001600281111561085357610852611570565b5b60008054906101000a900460ff16600281111561087357610872611570565b5b146108b3576040517f08c379a00000000000000000000000000000000000000000000000000000000081526004016108aa90611d0b565b60405180910390fd5b60026000806101000a81548160ff021916908360028111156108d8576108d7611570565b5b0217905550565b60011515600360003373ffffffffffffffffffffffffffffffffffffffff1673ffffffffffffffffffffffffffffffffffffffff16815260200190815260200160002060009054906101000a900460ff1615151461093c57600080fd5b600060028111156109505761094f611570565b5b60008054906101000a900460ff1660028111156109705761096f611570565b5b146109b0576040517f08c379a00000000000000000000000000000000000000000000000000000000081526004016109a790611d0b565b60405180910390fd5b60016000806101000a81548160ff021916908360028111156109d5576109d4611570565b5b0217905550565b60001515600360003373ffffffffffffffffffffffffffffffffffffffff1673ffffffffffffffffffffffffffffffffffffffff16815260200190815260200160002060009054906101000a900460ff16151514610a6f576040517f08c379a0000000000000000000000000000000000000000000000000000000008152600401610a66906121a6565b60405180910390fd5b60006002811115610a8357610a82611570565b5b60008054906101000a900460ff166002811115610aa357610aa2611570565b5b14610ae3576040517f08c379a0000000000000000000000000000000000000000000000000000000008152600401610ada90611d0b565b60405180910390fd5b33600560003373ffffffffffffffffffffffffffffffffffffffff1673ffffffffffffffffffffffffffffffffffffffff16815260200190815260200160002060000160006101000a81548173ffffffffffffffffffffffffffffffffffffffff021916908373ffffffffffffffffffffffffffffffffffffffff16021790555080600560003373ffffffffffffffffffffffffffffffffffffffff1673ffffffffffffffffffffffffffffffffffffffff1681526020019081526020016000206001019081610bb39190611f8a565b506000600560003373ffffffffffffffffffffffffffffffffffffffff1673ffffffffffffffffffffffffffffffffffffffff16815260200190815260200160002060020160006101000a81548160ff0219169083151502179055506000600560003373ffffffffffffffffffffffffffffffffffffffff1673ffffffffffffffffffffffffffffffffffffffff16815260200190815260200160002060020160016101000a81548160ff0219169083151502179055506002600560003373ffffffffffffffffffffffffffffffffffffffff1673ffffffffffffffffffffffffffffffffffffffff16815260200190815260200160002090806001815401808255809150506001900390600052602060002090600302016000909190919091506000820160009054906101000a900473ffffffffffffffffffffffffffffffffffffffff168160000160006101000a81548173ffffffffffffffffffffffffffffffffffffffff021916908373ffffffffffffffffffffffffffffffffffffffff16021790555060018201816001019081610d4f9190612072565b506002820160009054906101000a900460ff168160020160006101000a81548160ff0219169083151502179055506002820160019054906101000a900460ff168160020160016101000a81548160ff021916908315150217905550505050565b8060011515600482604051610dc49190611dc7565b908152602001604051809103902060010160009054906101000a900460ff16151514610e25576040517f08c379a0000000000000000000000000000000000000000000000000000000008152600401610e1c90612212565b60405180910390fd5b60001515600360003373ffffffffffffffffffffffffffffffffffffffff1673ffffffffffffffffffffffffffffffffffffffff16815260200190815260200160002060009054906101000a900460ff16151514610eb8576040517f08c379a0000000000000000000000000000000000000000000000000000000008152600401610eaf906121a6565b60405180910390fd5b60016002811115610ecc57610ecb611570565b5b60008054906101000a900460ff166002811115610eec57610eeb611570565b5b14610f2c576040517f08c379a0000000000000000000000000000000000000000000000000000000008152600401610f2390611d0b565b60405180910390fd5b600482604051610f3c9190611dc7565b90815260200160405180910390206002016000815480929190610f5e90612261565b91905055506001600560003373ffffffffffffffffffffffffffffffffffffffff1673ffffffffffffffffffffffffffffffffffffffff16815260200190815260200160002060020160016101000a81548160ff0219169083151502179055505050565b6000600360003373ffffffffffffffffffffffffffffffffffffffff1673ffffffffffffffffffffffffffffffffffffffff16815260200190815260200160002060009054906101000a900460ff16905090565b6001818154811061102657600080fd5b906000526020600020906003020160009150905080600001805461104990611d5a565b80601f016020809104026020016040519081016040528092919081815260200182805461107590611d5a565b80156110c25780601f10611097576101008083540402835291602001916110c2565b820191906000526020600020905b8154815290600101906020018083116110a557829003601f168201915b5050505050908060010160009054906101000a900460ff16908060020154905083565b606060011515600360003373ffffffffffffffffffffffffffffffffffffffff1673ffffffffffffffffffffffffffffffffffffffff16815260200190815260200160002060009054906101000a900460ff1615151461114457600080fd5b6002805480602002602001604051908101604052809291908181526020016000905b828210156112b657838290600052602060002090600302016040518060800160405290816000820160009054906101000a900473ffffffffffffffffffffffffffffffffffffffff1673ffffffffffffffffffffffffffffffffffffffff1673ffffffffffffffffffffffffffffffffffffffff1681526020016001820180546111ef90611d5a565b80601f016020809104026020016040519081016040528092919081815260200182805461121b90611d5a565b80156112685780601f1061123d57610100808354040283529160200191611268565b820191906000526020600020905b81548152906001019060200180831161124b57829003601f168201915b505050505081526020016002820160009054906101000a900460ff161515151581526020016002820160019054906101000a900460ff16151515158152505081526020019060010190611166565b50505050905090565b60011515600360003373ffffffffffffffffffffffffffffffffffffffff1673ffffffffffffffffffffffffffffffffffffffff16815260200190815260200160002060009054906101000a900460ff1615151461131c57600080fd5b60008060006101000a81548160ff0219169083600281111561134157611340611570565b5b0217905550565b6113506114ae565b81600015156004826040516113659190611dc7565b908152602001604051809103902060010160009054906101000a900460ff161515146113c6576040517f08c379a00000000000000000000000000000000000000000000000000000000081526004016113bd906122f5565b60405180910390fd5b6004836040516113d69190611dc7565b90815260200160405180910390206040518060600160405290816000820180546113ff90611d5a565b80601f016020809104026020016040519081016040528092919081815260200182805461142b90611d5a565b80156114785780601f1061144d57610100808354040283529160200191611478565b820191906000526020600020905b81548152906001019060200180831161145b57829003601f168201915b505050505081526020016001820160009054906101000a900460ff16151515158152602001600282015481525050915050919050565b604051806060016040528060608152602001600015158152602001600081525090565b6000604051905090565b600080fd5b600080fd5b600073ffffffffffffffffffffffffffffffffffffffff82169050919050565b6000611510826114e5565b9050919050565b61152081611505565b811461152b57600080fd5b50565b60008135905061153d81611517565b92915050565b600060208284031215611559576115586114db565b5b60006115678482850161152e565b91505092915050565b7f4e487b7100000000000000000000000000000000000000000000000000000000600052602160045260246000fd5b600381106115b0576115af611570565b5b50565b60008190506115c18261159f565b919050565b60006115d1826115b3565b9050919050565b6115e1816115c6565b82525050565b60006020820190506115fc60008301846115d8565b92915050565b600081519050919050565b600082825260208201905092915050565b6000819050602082019050919050565b600081519050919050565b600082825260208201905092915050565b60005b8381101561166857808201518184015260208101905061164d565b60008484015250505050565b6000601f19601f8301169050919050565b60006116908261162e565b61169a8185611639565b93506116aa81856020860161164a565b6116b381611674565b840191505092915050565b60008115159050919050565b6116d3816116be565b82525050565b6000819050919050565b6116ec816116d9565b82525050565b6000606083016000830151848203600086015261170f8282611685565b915050602083015161172460208601826116ca565b50604083015161173760408601826116e3565b508091505092915050565b600061174e83836116f2565b905092915050565b6000602082019050919050565b600061176e82611602565b611778818561160d565b93508360208202850161178a8561161e565b8060005b858110156117c657848403895281516117a78582611742565b94506117b283611756565b925060208a0199505060018101905061178e565b50829750879550505050505092915050565b600060208201905081810360008301526117f28184611763565b905092915050565b600080fd5b600080fd5b7f4e487b7100000000000000000000000000000000000000000000000000000000600052604160045260246000fd5b61183c82611674565b810181811067ffffffffffffffff8211171561185b5761185a611804565b5b80604052505050565b600061186e6114d1565b905061187a8282611833565b919050565b600067ffffffffffffffff82111561189a57611899611804565b5b6118a382611674565b9050602081019050919050565b82818337600083830152505050565b60006118d26118cd8461187f565b611864565b9050828152602081018484840111156118ee576118ed6117ff565b5b6118f98482856118b0565b509392505050565b600082601f830112611916576119156117fa565b5b81356119268482602086016118bf565b91505092915050565b600060208284031215611945576119446114db565b5b600082013567ffffffffffffffff811115611963576119626114e0565b5b61196f84828501611901565b91505092915050565b6000819050919050565b61198b81611978565b811461199657600080fd5b50565b6000813590506119a881611982565b92915050565b6000602082840312156119c4576119c36114db565b5b60006119d284828501611999565b91505092915050565b6119e481611505565b82525050565b600082825260208201905092915050565b6000611a068261162e565b611a1081856119ea565b9350611a2081856020860161164a565b611a2981611674565b840191505092915050565b611a3d816116be565b82525050565b6000608082019050611a5860008301876119db565b8181036020830152611a6a81866119fb565b9050611a796040830185611a34565b611a866060830184611a34565b95945050505050565b6000602082019050611aa46000830184611a34565b92915050565b611ab3816116d9565b82525050565b60006060820190508181036000830152611ad381866119fb565b9050611ae26020830185611a34565b611aef6040830184611aaa565b949350505050565b600081519050919050565b600082825260208201905092915050565b6000819050602082019050919050565b611b2c81611505565b82525050565b6000608083016000830151611b4a6000860182611b23565b5060208301518482036020860152611b628282611685565b9150506040830151611b7760408601826116ca565b506060830151611b8a60608601826116ca565b508091505092915050565b6000611ba18383611b32565b905092915050565b6000602082019050919050565b6000611bc182611af7565b611bcb8185611b02565b935083602082028501611bdd85611b13565b8060005b85811015611c195784840389528151611bfa8582611b95565b9450611c0583611ba9565b925060208a01995050600181019050611be1565b50829750879550505050505092915050565b60006020820190508181036000830152611c458184611bb6565b905092915050565b60006060830160008301518482036000860152611c6a8282611685565b9150506020830151611c7f60208601826116ca565b506040830151611c9260408601826116e3565b508091505092915050565b60006020820190508181036000830152611cb78184611c4d565b905092915050565b7f456c656374696f6e206e6f742053746172746564000000000000000000000000600082015250565b6000611cf56014836119ea565b9150611d0082611cbf565b602082019050919050565b60006020820190508181036000830152611d2481611ce8565b9050919050565b7f4e487b7100000000000000000000000000000000000000000000000000000000600052602260045260246000fd5b60006002820490506001821680611d7257607f821691505b602082108103611d8557611d84611d2b565b5b50919050565b600081905092915050565b6000611da18261162e565b611dab8185611d8b565b9350611dbb81856020860161164a565b80840191505092915050565b6000611dd38284611d96565b915081905092915050565b60008190508160005260206000209050919050565b60006020601f8301049050919050565b600082821b905092915050565b600060088302611e407fffffffffffffffffffffffffffffffffffffffffffffffffffffffffffffffff82611e03565b611e4a8683611e03565b95508019841693508086168417925050509392505050565b6000819050919050565b6000611e87611e82611e7d84611978565b611e62565b611978565b9050919050565b6000819050919050565b611ea183611e6c565b611eb5611ead82611e8e565b848454611e10565b825550505050565b600090565b611eca611ebd565b611ed5818484611e98565b505050565b5b81811015611ef957611eee600082611ec2565b600181019050611edb565b5050565b601f821115611f3e57611f0f81611dde565b611f1884611df3565b81016020851015611f27578190505b611f3b611f3385611df3565b830182611eda565b50505b505050565b600082821c905092915050565b6000611f6160001984600802611f43565b1980831691505092915050565b6000611f7a8383611f50565b9150826002028217905092915050565b611f938261162e565b67ffffffffffffffff811115611fac57611fab611804565b5b611fb68254611d5a565b611fc1828285611efd565b600060209050601f831160018114611ff45760008415611fe2578287015190505b611fec8582611f6e565b865550612054565b601f19841661200286611dde565b60005b8281101561202a57848901518255600182019150602085019450602081019050612005565b868310156120475784890151612043601f891682611f50565b8355505b6001600288020188555050505b505050505050565b60008154905061206b81611d5a565b9050919050565b818103612080575050612158565b6120898261205c565b67ffffffffffffffff8111156120a2576120a1611804565b5b6120ac8254611d5a565b6120b7828285611efd565b6000601f8311600181146120e657600084156120d4578287015490505b6120de8582611f6e565b865550612151565b601f1984166120f487611dde565b96506120ff86611dde565b60005b8281101561212757848901548255600182019150600185019450602081019050612102565b868310156121445784890154612140601f891682611f50565b8355505b6001600288020188555050505b5050505050505b565b7f41646d696e2063616e206e6f7420566f74650000000000000000000000000000600082015250565b60006121906012836119ea565b915061219b8261215a565b602082019050919050565b600060208201905081810360008301526121bf81612183565b9050919050565b7f43616e64696461746520646f6573206e6f742065786973740000000000000000600082015250565b60006121fc6018836119ea565b9150612207826121c6565b602082019050919050565b6000602082019050818103600083015261222b816121ef565b9050919050565b7f4e487b7100000000000000000000000000000000000000000000000000000000600052601160045260246000fd5b600061226c826116d9565b91507f7fffffffffffffffffffffffffffffffffffffffffffffffffffffffffffffff820361229e5761229d612232565b5b600182019050919050565b7f43616e64696461746520616c7265616479206578697374730000000000000000600082015250565b60006122df6018836119ea565b91506122ea826122a9565b602082019050919050565b6000602082019050818103600083015261230e816122d2565b905091905056fea264697066735822122044dd379f4108c20ff459e8f90e1e3a8ec478ed32116a825ae7ba9f73dad8b3a564736f6c63430008110033",
  "immutableReferences": {},
  "source": "// SPDX-License-Identifier: GPL-3.0\r\n\r\npragma solidity ^0.8.0;\r\n\r\ncontract DistributedVoting {\r\n    constructor() {\r\n        admins[msg.sender] = true;\r\n    }\r\n\r\n    //Variable\r\n    struct Voter {\r\n        address voterAddress;\r\n        string voterName;\r\n        bool registered;\r\n        bool voted;\r\n    }\r\n    struct Candidate {\r\n        string candidateName;\r\n        bool exists;\r\n        int256 voteCount;\r\n    }\r\n\r\n    enum State {\r\n        NotStarted,\r\n        Running,\r\n        Ended\r\n    }\r\n\r\n    State state;\r\n\r\n    // Lists\r\n    Candidate[] public candidateList;\r\n    Voter[] public voterList;\r\n\r\n    // mapping\r\n    mapping(address => bool) admins;\r\n    mapping(string => Candidate) candidates;\r\n    mapping(address => Voter) voters;\r\n\r\n    //modifiers\r\n    modifier onlyAdmin() {\r\n        require(admins[msg.sender] == true);\r\n        _;\r\n    }\r\n    modifier isVoter(address _address) {\r\n        require(voters[_address].registered == true, \"Not Register\");\r\n        _;\r\n    }\r\n\r\n    modifier candidateExists(string memory name) {\r\n        require(candidates[name].exists == true, \"Candidate does not exist\");\r\n        _;\r\n    }\r\n    modifier notStarted() {\r\n        require(state == State.NotStarted, \"Election not Started\");\r\n        _;\r\n    }\r\n\r\n    modifier running() {\r\n        require(state == State.Running, \"Election not Started\");\r\n        _;\r\n    }\r\n\r\n    modifier ended() {\r\n        require(state == State.Ended, \"Election not Started\");\r\n        _;\r\n    }\r\n\r\n    modifier notVoted() {\r\n        require(voters[msg.sender].voted == false, \"Already voted\");\r\n        _;\r\n    }\r\n    modifier notAdmin() {\r\n        require(admins[msg.sender] == false, \"Admin can not Vote\");\r\n        _;\r\n    }\r\n    modifier candidateNotExists(string memory name) {\r\n        require(candidates[name].exists == false, \"Candidate already exists\");\r\n        _;\r\n    }\r\n\r\n    //functions\r\n    function checkAdmin() public view returns (bool) {\r\n        return admins[msg.sender];\r\n    }\r\n\r\n    function getState() public view returns (State) {\r\n        return state;\r\n    }\r\n\r\n    function addCandidate(string memory name) public notStarted {\r\n        candidates[name].candidateName = name;\r\n        candidates[name].exists = true;\r\n        candidates[name].voteCount = 0;\r\n        candidateList.push(candidates[name]);\r\n    }\r\n\r\n    function getCandidate(string memory name)\r\n        public\r\n        view\r\n        candidateNotExists(name)\r\n        returns (Candidate memory candidate)\r\n    {\r\n        candidate = candidates[name];\r\n        return (candidate);\r\n    }\r\n\r\n    function getAllCandidates()\r\n        public\r\n        view\r\n        onlyAdmin\r\n        returns (Candidate[] memory)\r\n    {\r\n        return (candidateList);\r\n    }\r\n\r\n    function startElection() public onlyAdmin notStarted {\r\n        state = State.Running;\r\n    }\r\n\r\n    function endElection() public onlyAdmin running {\r\n        state = State.Ended;\r\n    }\r\n\r\n    function resetElection() public onlyAdmin {\r\n        state = State.NotStarted;\r\n    }\r\n\r\n    function registerVoter(string memory name) public notAdmin notStarted {\r\n        voters[msg.sender].voterAddress = msg.sender;\r\n        voters[msg.sender].voterName = name;\r\n        voters[msg.sender].registered = false;\r\n        voters[msg.sender].voted = false;\r\n        voterList.push(voters[msg.sender]);\r\n    }\r\n\r\n    function verifyVoter(address _address) public onlyAdmin notStarted {\r\n        voters[_address].registered = true;\r\n    }\r\n\r\n    function getVoters() public view onlyAdmin returns (Voter[] memory) {\r\n        return voterList;\r\n    }\r\n\r\n    function castVote(string memory name)\r\n        public\r\n        candidateExists(name)\r\n        notAdmin\r\n        running\r\n    {\r\n        candidates[name].voteCount++;\r\n        voters[msg.sender].voted = true;\r\n    }\r\n}\r\n",
  "sourcePath": "D:\\niischal\\decentralized_voting\\contracts\\DistributedVoting.sol",
  "compiler": {
    "name": "solc",
    "version": "0.8.17+commit.8df45f5f.Emscripten.clang"
  },
  "schemaVersion": "3.4.10",
  "updatedAt": "2022-11-09T06:55:39.722Z",
  "networkType": "ethereum",
  "devdoc": {
    "kind": "dev",
    "methods": {},
    "version": 1
  },
  "userdoc": {
    "kind": "user",
    "methods": {},
    "version": 1
  }
}